:020000041A00E0
:10000000F8FF00204109001A2509001A2909001AE1
:100010002D09001A3109001A3509001A00000000E4
:100020000000000000000000000000003909001A74
:100030003D09001A00000000D937021AC346011A10
:100040002109001A2109001A2109001A2109001AA0
:100050002109001A657D001A2109001A2109001AD8
:100060002109001A2109001A2109001A2109001A80
:100070002109001A8F52001AEF53001A2109001AA1
:100080002109001A2109001AEFB2001A27B3001A39
:100090002109001A2109001A25BD001A45BE001ABF
:1000A000BDA9001A11AC001A01AD001AF1AD001A79
:1000B0002109001A2109001A2109001A2109001A30
:1000C0002109001A2109001A2109001A2109001A20
:1000D0002109001A2109001A2109001A2109001A10
:1000E0002109001A2109001A2109001A2109001A00
:10040000DFF80CD023F06EF9004800470507001A0A
:10041000F8FF002010B50446C4EBC4020E4B1A448A
:100420005178C4EBC402985C09F0B8FF10BD70B5F8
:1004300004460D46C4EBC402074B1A445178C4EB82
:10044000C402985C2A460AF03CF870BD10B5024917
:100450000B200AF0F1F810BD5A42021A2DE9F047BC
:1004600007468846914612F06CFC06463146BCA011
:100470000CF068FDBFA00CF065FDC64D002403E044
:10048000285D00B103E0641CB4F57A7FF8D300BFA7
:10049000C4F57A7123464FF47A72BFA00CF052FD76
:1004A000C34D002403E0285D00B104E0641C40F665
:1004B000B8308442F7D300BF40F6B830011B234662
:1004C0000246BCA00CF03EFDC04D002403E0285DB8
:1004D00000B104E0641C41F294108442F7D300BFE1
:1004E00041F29410011B23460246B9A00CF02AFDEC
:1004F000BC4D002403E0285D00B103E0641CB4F5AA
:100500007A6FF8D300BFC4F57A6123464FF47A625C
:10051000B5A00CF017FDBA4D002403E0285D00B132
:1005200004E0641C40F6B8308442F7D300BF40F6C4
:10053000B830011B23460246B2A00CF003FD002098
:10054000BDE8F08770B5044600262146B3A00CF044
:10055000F9FC002C0ADB002108460AF0BFFD054625
:10056000022D03D1B8A00CF0EDFC01260EE0641EB4
:100570004FF47A7100200AF0B1FD0546022D01D139
:10058000012600242146B1A00CF0DCFC002C01DD8A
:10059000002EECD0AFA00CF0D5FC304670BD30B5CD
:1005A000CFB0AD484568AD480068AD49884201D13B
:1005B000012000E0002040B10020A8490860A9A067
:1005C0000CF0C0FC01204FB030BD01AA41A90120B0
:1005D00000F0B0FD0446002C06DA22469E49A9A090
:1005E0000CF0B0FC0220EEE79D489C49086000BF7B
:1005F00005209A490F3908700220491C0870002014
:10060000491C087000BFA648007818B141F2883034
:100610000BF022F82946A3A0449A0CF093FC8F48D3
:10062000001F0560A8488D49083908600A200AF0B3
:1006300092FF00BFBFF34F8FA448006800F4E06052
:10064000A3490843001DA1490860BFF34F8F00BFB5
:1006500000BFFEE79FA00CF075FC00F07FFC4FF49C
:100660007A714C4822F081FC0D23A04A0021A04859
:1006700012F061F84FF47A615A4822F076FC19239F
:100680009C4A00219C4812F056F841F294114F48C0
:1006900022F06BFC1423994A0021994812F04BF880
:1006A00040F6B831564822F060FC1A23954A0021E2
:1006B000954812F040F895480CF0C0FD94A00CF05D
:1006C00041FC03E00CF0DBFF04F07FF9FAE770B5C2
:1006D0000546904800684FF47A71B0FBF1F420466B
:1006E00013F0DAFF00F0A6FB0120FFF72BFF10B19B
:1006F00000BFFFF7AFFF01F054F9FFF750FF00B163
:10070000F7E770BD10B55548083800686E49884253
:1007100001D1012000E0002030B100204F4908390C
:100720000860081D0468A04709F0E6FA06F087FB98
:10073000112006F069FD7749086011F0F8FC40F6D9
:10074000B8311B4822F011FC2823734A0021AFF274
:10075000810011F0F0FF11F045FD002010BD0000F8
:1007600052756E6E696E672074696D653A202564F6
:100770006D730A005461736B20737461636B3A0D7F
:1007800009097573656409746F74616C0966726533
:10079000650A00004001081020207C2D4272644D43
:1007A0006F6E0D090925640925640925640A000096
:1007B0002805081020207C2D4D61696E0D09092542
:1007C000640925640925640A00000000E01008108F
:1007D00020207C2D4E65740D0909256409256409C6
:1007E00025640A007422081020207C2D5466747041
:1007F0000D090925640925640925640A0000000023
:100800001432081020207C2D526B3130300D090934
:1008100025640925640925640A0000000A507265F0
:100820007373204354524C2B4220746F20696E74B2
:10083000657272757074206175746F626F6F743A4F
:1008400020253032640000000808300008082530F8
:10085000326400000A0A00000000041AFC3600207E
:10086000172005B00A466F72636520746F20626FAF
:100870006F746D6F646520666F72206261642061C1
:1008800070700A004E6F7420666F756E6420617020
:100890007020617420307825785B25645D0A000043
:1008A000210008105374617274696E672061707062
:1008B0002061742030782578205B6C656E3D25645E
:1008C0005D2E2E2E0A0000001620A5A50CED00E0DE
:1008D0000000FA050A456E74657220424F4F542D90
:1008E0004D4F44452E2E2E0A00000000240508100E
:1008F0005D0B001A10320810AD40001A702208106B
:10090000033E001AC83D0810290E001A0000081006
:100910003D3E0000B4020010DC10081001207047BA
:1009200000BFFEE700BFFEE700BFFEE700BFFEE737
:1009300000BFFEE700BFFEE700BFFEE700BFFEE727
:1009400010B5FFF7EBFFFFF75BFD10BD7047704779
:1009500070477047704770477047704770B50446DE
:100960000D464FF47A700AF0F6FD4FF0FF3070BD7F
:100970000246002070470EB5E0A00CF0E3FAE0A0BC
:100980000CF0E0FAE9A00CF0DDFADDA00CF0DAFAE8
:10099000ECA0002104220B46CDE9002102900222A6
:1009A0000521EBA00CF0CEFAF2A2F5A1F7A00CF015
:1009B000C9FA47F21721FBA00CF0C4FAFE480168FF
:1009C000FEA00CF0BFFA0EBD2DE9F04107460D4622
:1009D0001646022D04DA0AF0CDFD0020BDE8F081B4
:1009E00000221146706822F046FB04461CB100202C
:1009F000F749087001E00AF0BDFD0020EEE710B5F0
:100A000001210420FFF713FD01210220FFF70FFD54
:100A1000F04949784FF47A7201FB02F00AF09BFD2D
:100A2000EC488078012806D1EA4890F84320C11CA0
:100A3000002009F035FFE74890F84600012807D16B
:100A4000E44890F8872000F14701012009F028FFD1
:100A5000E04890F88A00012807D1DE4890F8CB20C2
:100A600000F18B01022009F01BFFDA4890F8CE005C
:100A7000012805D1D74991F8CF00002104F06AFB85
:100A80004FF4FA700AF067FDD24890F8D1000128BF
:100A900005D1D04991F8D200012104F05BFB01207F
:100AA000CD49087004F031FE10BD10B500210420BE
:100AB000FFF7BDFC00210220FFF7B9FCC54991F802
:100AC000EF104FF47A7201FB02F00AF044FDC148C6
:100AD00090F8F000012807D1BE4890F8312100F1CC
:100AE000F101002009F0DCFEBA4890F83401012839
:100AF00007D1B84890F8752100F23511012009F0AE
:100B0000CFFEB44890F87801012807D1B14890F899
:100B1000B92100F27911022009F0C2FEAD4890F827
:100B2000BC01012805D1AB4991F8BD01002104F0B9
:100B300011FB4FF4FA700AF00EFDA64890F8BF01C1
:100B4000012805D1A34991F8C001012104F002FB5D
:100B50000020A149087004F0D8FD10BD86B012F045
:100B6000F0F806464FF0FF384FF000090024A24687
:100B700059E19748007808B10AF0AEFD12F0E1F8AB
:100B80000546B54201D3AF1B02E0A8EB06004719AA
:100B9000642F0AD32E466420B7FBF0F08F49096812
:100BA00008448E49086004F08EF98D4800780A28C0
:100BB00019DD00208A4908708748007808B90120AB
:100BC00000E000208449087008460078012802D11E
:100BD000FFF715FF01E0FFF768FF00BF0720FFF7F1
:100BE00019FC0028FAD00720FFF714FC8146B9F160
:100BF000000F05D17A480078401C7949087002E05E
:100C00000020774908701821684622F0AEF90A23BF
:100C10001522694603200AF09DFA8246BAF1000FB8
:100C200044D19DF80700302841D100243CE06948B8
:100C300090F8D400012835D104EB84016548D53003
:100C4000405C01282ED19DF8081004EB8402614815
:100C5000D53010444078814224D19DF8091004EB2E
:100C600084025C48D5301044807881421AD19DF8C6
:100C70000A1004EB84025748D5301044C0788142F2
:100C800010D19DF80B1004EB84025248D53010446B
:100C90000079814206D101204F4908700B2050494C
:100CA000087003E0601CC4B2052CC0DBBBE09DF8FB
:100CB0000700102820D10024B1E0464890F8D40065
:100CC00001281AD104EB84014248D530405C012848
:100CD00013D19DF8081004EB84023E48D53010442F
:100CE0004078814209D19DF8091004EB840239480B
:100CF000D5301044807875E095E08EE00A0A0A004D
:100D00002A2A2A2A2A2A2A2A2A2A2A2A2A2A2A2A43
:100D10002A2A2A2A2A2A2A2A2A2A2A2A2A2A2A2A33
:100D20002A2A2A2A2A2A2A2A0A00000009202052CE
:100D30004B31303020626F61726420424F4F540A51
:100D4000000000003230313831323236000000000D
:100D50002020417070202076657273696F6E3A2092
:100D60005625642E25642E25642E25642E25642E9A
:100D700025730A0031353A35373A3438000000001F
:100D80004465632032362032303138002020436FF2
:100D90006D70696C652074696D653A202573202536
:100DA000730A0A0075432F4F532D49492076657207
:100DB0003A2025640A000000B40200104C50433170
:100DC00038333720636F72653A2025640A000000CB
:100DD0002100081080080010200008101C000810D6
:100DE00038000810814218D19DF80A1004EB8402E3
:100DF0008A481044C07881420FD19DF80B1004EB53
:100E00008402864810440079814206D1002084493A
:100E100008700B208349087004E0601CC4B2052CE4
:100E2000FFF64BAF00BFA4E603E003F00CFF05F0B4
:100E3000FBFAFAE710B5FFF709FB4FF490717A4817
:100E400022F093F80320784908604FF4E1304860BD
:100E500076488860764808614020C8604861002074
:100E60000AF03EF80320704988644FF4E1316E487F
:100E7000C164704901657049816540214165C16562
:100E800000F1480101200AF02BF803206649C1F85F
:100E900090004FF4E1316448C0F894106749C0F8FD
:100EA00098106749C0F8A0104021C0F89C10C0F805
:100EB000A41000F1900102200AF012F803205A4910
:100EC000C1F8D8004FF461415748C0F8DC105D49C3
:100ED000C0F8E0105C49C0F8E8104021C0F8E41008
:100EE000C0F8EC1000F1D801032009F0F9FF5748D1
:100EF00000210160416081600020544908724872FD
:100F0000534808605348486008460CF07CFBFFF7E4
:100F100032FD0AF063FA60214F4822F026F80020E3
:100F20004D49087040F6080048604C494A488160C5
:100F300000210161014600200AF046FE1C214848BC
:100F400022F013F8002046490870487043480861B1
:100F5000002014F076F900F019FD10BD70B50025E1
:100F600014200AF0A2FA01210020FFF760FA002104
:100F70000320FFF75CFA3B480CF060F93A48007830
:100F800018B141F288300AF067FB2021374821F080
:100F9000ECFF00203549087035484860002133488F
:100FA0008160014600200AF051F9324800210160B9
:100FB000416000202F49087050204870002014F034
:100FC0006DFA20212C4821F0D0FF2C482A490860D6
:100FD0002B4848600020C86008614FF48070486169
:100FE00008460FF092FE0546002D04DA294625A09A
:100FF0000BF0A8FF08E00FF087FD04462BA0211D91
:101000000EC90BF09FFF00BF01F0D1FC03F0F6FD0D
:1010100004F032F905F087F970BD000055090010A1
:101020002000081038000810CC050010CC03001078
:101030000C0400104C0400108C040010CC040010B0
:101040000C0500104C0500108C050010A8070010BE
:10105000DDB0001AF3A7001A0C070010808D5B00AA
:101060008C0700102400081021000810EC06001066
:10107000801A0600140008106C0700105153011A62
:101080009D53011A5B4150505D3A2070726F647538
:10109000637420696E666F206E6F7420666F756E64
:1010A000642C2072746E3D25640A00005B41505030
:1010B0005D3A2070726F6475637420696E666F3A72
:1010C000207069643D3078257820687769643D3008
:1010D0007825782068777665723D25640A000000DF
:1010E0002DE9F04180460C460026F648206001209C
:1010F0006060002060632746002504E0795D606B36
:10110000084460636D1C342DF8D3062140460EF070
:10111000B7FC0646002E02DA3046BDE8F0813822E0
:10112000394640460EF02CFE002140460EF067FF87
:101130003046F2E72DE9F74F84B00C469146002087
:10114000029003943821039821F00FFF38220021E8
:10115000DDE903300DF08AFF8346BBF1000F04DAAE
:101160004FF0FF3007B0BDE8F08FD64920688842C5
:1011700002D06FF00100F5E7A068072802D36FF0F6
:101180000200EFE70026002503E00398405D0644D7
:101190006D1C342DF9D3606BB0420AD0606B3346BE
:1011A000C322C9490090C9A00BF0CCFE6FF0030028
:1011B000D8E74FF0000AE76828E0B7F5807F02D94A
:1011C0004FF4807000E0384680464B464246514618
:1011D000A0680DF04BFF8346BBF1000F08DA5B46B9
:1011E000D222B949C7A00BF0ADFE6FF00400B9E7F9
:1011F000002506E019F8051002980844C0B20290D4
:101200006D1C4545F6D3C244A7EB0807002FD4D187
:1012100021690298814209D020690090E122AA49FF
:10122000C1A0029B0BF08EFEB81F9BE7002099E740
:101230002DE9F04106460D4606B11DB94FF0FF30CD
:10124000BDE8F081002426E004EB4400C44901EB32
:101250008000007A00F0040048B104EB44000A4624
:1012600052F82010304621F0BAFE98B915E004EB90
:101270004401BB4A52F8210021F0AAFE074604EBC4
:101280004400B74A52F820103A46304621F0DAFEC0
:1012900000B902E0641C032CD6D300BF032C02D398
:1012A0006FF00100CCE704EB4400AD4901EB800096
:1012B000406828602046C3E72DE9F04705460E4602
:1012C000174600244FF038094FF00408022E01D1D0
:1012D000772000E0722002462946A2A00BF032FEE1
:1012E00022F04CFA1FB90020A549086002E0A44989
:1012F00038680860A34800684FF6FF7188420BD039
:1013000022F043FA40F22D129F49A0A00BF01AFEE2
:101310006FF00900BDE8F0879A4805600020A149F8
:10132000087022F032FA012E01D1012000E00220E3
:1013300040EA0808022D35D003DC3DB1012D3AD139
:1013400016E0652D1BD0662D35D122E04A460021DE
:1013500002200DF073FF0446002C00DA38E041460D
:1013600004200EF08DFB0446002C00DA30E02CE067
:1013700010F013F80446002C00DA29E025E011F003
:10138000E0FC8949086000208849086088490870A5
:101390001BE0414606200EF073FB0446002C00DAE9
:1013A00016E012E03946304601F0B8FD0446002C44
:1013B00000DA0DE009E02B4640F25D1272497DA093
:1013C0000BF0C0FD6FF0130402E000BF2046A1E760
:1013D0004FF6FF706B49086020469BE72DE9FC4102
:1013E00006460D46174601A93046FFF721FF044681
:1013F000002C02DA2046BDE8FC81012D0AD104EB65
:101400004400574901EB8000007A00F0010008B960
:10141000281FF0E7022D0AD104EB4400504901EBEC
:101420008000007A00F0020008B9A81FE3E70198E5
:10143000234632466A4900906AA00BF083FD3A4683
:1014400029460198FFF738FFD5E7F0B591B005467A
:101450000024002002904B48016869A00BF072FD47
:10146000382103A821F081FD46480068022824D0D5
:1014700003DC38B1012821D1EAE065281FD06628B5
:10148000F9D10FE102A904200EF0B9FD0446002CA9
:1014900000DC21E14348007800B11DE15E4800799D
:1014A0009DF8081088420BD05B48007900909DF8A9
:1014B000083040F2A3125949B2E0FCE003E1CCE06D
:1014C000B4E000001620A55ACC42021A5B415050ED
:1014D0005F4552525D3A2025733A25642D3E696E70
:1014E000666F20636865636B2073756D206572722B
:1014F0003A2063616C3D257820666C61673D2578F4
:10150000210A00005B4150505F4552525D3A202550
:10151000733A25642D3E6661696C6564212072749E
:101520006E3D25640A0000005B4150505F455252F9
:101530005D3A2025733A25642D3E64617461206311
:101540006865636B2073756D206572723A20636104
:101550006C3D257820666C61673D2578210A000086
:10156000A842021A5B4150505D3A206F70656E20B0
:1015700066775B25645D20666F722025630A000034
:10158000FC010010F8010010D642021A5B415050D5
:101590005F4552525D3A2025733A25642D3E6275AF
:1015A00073790A0009020010000200100402001002
:1015B000080200105B4150505F4552525D3A2025B1
:1015C000733A25642D3E6E6F7420737570706F7260
:1015D000742064774F626A5B25755D0A0000000025
:1015E000E642021A5B4150505D3A2025733A2025AD
:1015F0007320693D2564206F626A3D25640A0000FE
:101600005B4150505D3A20636C6F73652066775B79
:1016100025645D0A000000006C560810F342021AAF
:10162000EBA00BF08FFC4FF0FF3455E0F7A00BF070
:1016300089FC0420059006949DF80800079003A9F2
:101640000220FFF74DFD0446002C00DA44E03DE0A7
:1016500002A80FF05EFF044638E011F072FBF24979
:101660000968401AF04908600846006868B1EF4808
:1016700000684FF47A71A0FB01600146EA480268F5
:101680000023304621F006FC04462346E648026863
:10169000E6480168E6A00BF055FC0024EF4800780E
:1016A000029013E002A906200EF0A9FC0446002CCB
:1016B00000DC11E00AE002A801F0BEFC0446002CA8
:1016C00000DA09E002E06FF0630400BF00BF15B16B
:1016D0009DF80800287000BF4FF6FF70E0490860D1
:1016E000204611B0F0BD10B50120DE490870002081
:1016F000FFF7ABFE10BD70B505460C460026D84876
:10170000006802283CD003DC38B101283ED119E042
:1017100065281DD0662839D12BE0D34890F84500C4
:1017200048B90120D04981F8450000262146CFA0C4
:101730000BF008FC05E02246294604200EF020FBB1
:10174000064626E0214628460FF056FE064620E0D3
:10175000B64800682044B5490860002006E0295CCE
:10176000BE4A12781144BD4A1170401CA042F6D303
:101770000FE02246294606200EF002FB064608E04E
:101780002146284601F0F7FB064602E04FF0FF3005
:1017900070BD00BF002E02DA0120B2490870304649
:1017A000F6E7F7B582B007461646002403AA0221E1
:1017B0003846FFF781FD0446002C02DA204605B0CA
:1017C000F0BDAFF2CD000EF06BFF30460EF06DFFB6
:1017D0000546002D07DC234640F23322A749A8A086
:1017E00000940BF0AFFB0020FFF72FFE0446002C07
:1017F00008DA234640F23922A049AEA00BF0A2FB42
:101800002046DCE72846DAE770B504460D46482254
:101810002146954821F082FB93480168B2A00BF065
:1018200091FB91480179B5A00BF08CFB8E49491DC5
:10183000B8A00BF087FB4FF0FF3070BDF7B5064640
:101840001746002576B94821874821F08EFBB64916
:10185000AFF24B024868394614F0D6F94FF4FA60FB
:1018600009F079FE01AA02213046FFF725FD054661
:10187000002D01DA2846FEBDAB49AFF2851248685B
:10188000394614F0C1F90446002C06DC23464FF417
:101890001A72A649A6A00BF055FB0020FFF7D5FD54
:1018A0000546002D08DA2B4640F26E229F4981A0A2
:1018B0000BF048FB2846DEE72046DCE72DE9F04741
:1018C00081460F461646032F20DA002418E004EB69
:1018D0004400A44901EB8000007A00F0020000B946
:1018E0000DE004EB44009F4B53F8202004EB440030
:1018F00003EB800041689CA00BF024FB00BF641C3C
:10190000032CE4D34FF0FF30BDE8F08700221146EE
:10191000706821F0B0FB044600221146B06821F047
:10192000AAFB8046032F14DD214695A00BF00AFB8D
:1019300041462046F268FFF781FF0546002D1EDA7A
:101940002B4640F29922994999A00BF0FBFA2846C0
:10195000DAE700222146A1A00BF0F4FA002241466A
:101960002046FFF71EFF0546002D08DA2B464FF4F0
:1019700029728E498EA00BF0E5FA2846C4E72A4664
:101980002946A0A00BF0DEFA0020BDE710B50AF052
:1019900065FBA64907200EF058F8A5480BF04EFC51
:1019A00010BD2DE9F041D0B001AA42A90220FFF7F5
:1019B000C1FB0446002C03DA204650B0BDE8F0819C
:1019C0004498042803D04FF439729A4934E13AE13B
:1019D0005B4150505F4552525D3A2025733A256471
:1019E0002D3E436865636B53756D206572726F722F
:1019F0002046696C6553756D3A30782578204865C6
:101A0000616453756D3A307825780A005B41505017
:101A10005D3A20757064617465206E657720617031
:101A20007020696E666F0A00000200100402001048
:101A30005B4150505D3A2072656376656420257580
:101A40002062797465732C20757365642025756D2B
:101A5000732025754270730A000000000802001010
:101A6000F8010010090200106C560810536B6970E1
:101A70002073697A653A25640A0000000143021A5E
:101A80005B4150505F4552525D3A2025733A2564C0
:101A90002D3E4B65726D697452656376206661698F
:101AA0006C6564212072746E3D25645B25785D0A47
:101AB000000000005B4150505F4552525D3A2025C6
:101AC000733A25642D3E4677557064617465436CA6
:101AD0006F7365206661696C65642C206E52746E4C
:101AE0003D2564210A0000005B4150505D3A204DC5
:101AF000616769633A307825780A00005B4150508D
:101B00005D3A2046696C654372633A307825780AFD
:101B1000000000005B4150505D3A205665727369C9
:101B20006F6E3A25730A0000B40700101043021AC2
:101B30005B4150505F4552525D3A2025733A25640F
:101B40002D3E546674705265637646696C652066F6
:101B500061696C65642C206E52746E3D2564210AA7
:101B600000000000A842021A5B4150505D3A200973
:101B70006F626A5B2533645D3A2025730A000000BA
:101B80005B4150505D3A20757064617465206677E2
:101B90005B25645D2066726F6D20746674702073BF
:101BA00065727665722E2E2E0A0000001D43021A01
:101BB0005B4150505F4552525D3A2025733A25648F
:101BC0002D3E6661696C6564207265637620646190
:101BD00074612C2072746E3D25640A005B41505084
:101BE0005D3A207570646174652066775B25645D7D
:101BF0002066726F6D207561727425642E2E2E0A18
:101C0000000000005B4150505D3A207265636569D9
:101C10007665642073697A6520256420427974654D
:101C2000735B3078253038785D0A000000000010C2
:101C30000C0200102B43021AA1A0449B0BF082F966
:101C40006FF00100B9E6459D2946A6A00BF07AF990
:101C50003822002101200DF0F1FA0446002C02DAAE
:101C60006FF00200A9E6062103200DF009FF0446EB
:101C7000002C0ADA234640F2F522A549AFF27C7027
:101C80000BF060F96FF0030097E6002701AE2BE040
:101C9000B5F5807F02D94FF4807000E02846804679
:101CA00033464246394604200DF0E0F90446002C44
:101CB00007DA234640F20232954996A00BF042F92A
:101CC00014E04246314603200EF05AF80446002C38
:101CD00007DA234640F209328D4999A00BF032F918
:101CE00004E04744A5EB0805002DD1D100BF002C2E
:101CF00006DA002103200EF082F96FF004005CE6A2
:101D000041A903200EF07BF904460320449045943A
:101D10009DF80401469042A90120FFF7E1F904462D
:101D2000002C02DA6FF0050047E63822002102207D
:101D30000DF084FA0446002C02DA6FF006003CE64F
:101D40008AA00BF0FFF8002037E62DE9FF4FD3B053
:101D500080461546062004900020039005AA45A958
:101D60005498FFF7E7F90446002C04DA4FF0FF30EF
:101D700057B0BDE8F08F4798A8420CD0479843462B
:101D800040F24B328149CDE9000581A00BF0DAF831
:101D90006FF00100ECE700BF489E3246414686A046
:101DA000039B0BF0CFF810F0CCFF07460499569830
:101DB0000DF066FE0446002C0ADA234640F25A3241
:101DC0007249AFF6C0000BF0BDF86FF00300CFE72B
:101DD0004FF0000A0DF1140931E0B6F5807F02D909
:101DE0004FF4807000E0304683464B465A465146D9
:101DF00028460DF03BF90446002C07DA234640F252
:101E00006732624943A00BF09DF81AE05A464946F2
:101E100056980DF0B5FF0446002C07DA234640F231
:101E20006E325A4970A00BF08DF80AE0DA44A6EB46
:101E30000B06CAF3062010B976A00BF083F8002E2B
:101E4000CBD100BF31A00BF07DF8002C06DA0021C9
:101E500056980EF0D4F86FF0040427E0002156984D
:101E60000EF0CDF80446002C09DA234640F2863203
:101E7000464969A00BF066F86FF0050416E060981B
:101E800050B13822002154980DF0D8F90446002CA6
:101E900002DA6FF006006BE710F053FFC71B3A46FB
:101EA000414667A00BF04EF8002061E70398401C04
:101EB000C0B20390032800DA6EE7204658E700001E
:101EC0005B4150505F4552525D3A2025733A25647C
:101ED0002D3E61707020617265615F2575206572AD
:101EE00072210A005B4150505D3A20666F756E6446
:101EF000206E6577206C7063206170705B25755D66
:101F00002C2073796E63696E672E2E2E0A000000F6
:101F10002B43021A5B4150505F4552525D3A2025D7
:101F2000733A25642D3E726561642064617461209A
:101F30006661696C6564212072746E3D25640A00D7
:101F40005B4150505F4552525D3A2025733A2564FB
:101F50002D3E77727420617070206661696C6564D3
:101F6000212072746E3D25640A0000005B415050D0
:101F70005D3A2070726F6772616D206C70632061D2
:101F8000707020646F6E650A000000003A43021A08
:101F90005B4150505F4552525D3A2025733A2564AB
:101FA0002D3E257320667720617265615F2575205F
:101FB000213D2025750A00005B4150505D3A2066A6
:101FC0006F756E64206E65772025732066775B25BC
:101FD000755D2C206E6F25642073796E63696E6762
:101FE0002E2E2E0A000000005B4150505F455252D9
:101FF0005D3A2025733A25642D3E7772742066770A
:10200000206661696C6564212072746E3D25640AE6
:10201000000000002E0000005B4150505F4552520E
:102020005D3A2025733A25642D3E636C6F736520FD
:102030006661696C6564212072746E3D25640A00D6
:102040005B4150505D3A2070726F6772616D202560
:102050007320667720646F6E652C2075736564202D
:1020600025646D730A0A0000FEB505460E46174644
:10207000BEA0002104220B46CDE9002102900222DD
:102080000521BDA00AF05EFFC448017DC4A00AF08E
:1020900059FFC24CE0780090A37862782178C6A0FE
:1020A0000AF050FFCC4C61792079E278CDE900202C
:1020B0000291A37862782178C8A00AF043FFB74C58
:1020C0001034E0780090A37862782178CFA00AF0ED
:1020D00039FF241FE0780090A37862782178D3A09C
:1020E0000AF030FF083CE0780090A378627821780D
:1020F000D6A00AF027FF241DE0780090A37862782C
:102100002178DAA00AF01EFFA448C18ADFA00AF0F5
:1021100019FF04F11001E3A00AF014FF04F14001DB
:10212000E6A00AF00FFF9D4890F88810E9A00AF099
:1021300009FF9A4890F88910ECA00AF003FF97482D
:1021400090F88A10EFA00AF0FDFE0020FEBD70B5E9
:102150000025002404E020460FF01DFC0543641C0C
:10216000032CF8D3284670BD70B5044600258B4873
:1021700080F88A40CC22014600200FF095FB0546EE
:10218000002D07DA2B464FF4F772E449E4A00AF079
:10219000D9FE02E0EDA00AF0D5FE002070BD70B5BA
:1021A000044600257D4880F88940CC220146002065
:1021B0000FF07AFB0546002D07DA2B4640F2D512C8
:1021C000E849E9A00AF0BEFE02E0F2A00AF0BAFE79
:1021D000002070BD70B504460025704880F8884026
:1021E000CC22014600200FF05FFB0546002D07DAE8
:1021F0002B4640F20722ED49EDA00AF0A3FE02E0D3
:10220000F7A00AF09FFE002070BD70B504460025BF
:10221000402221466148483020F0C4FECC225F496C
:1022200000200FF041FB0546002D07DA2B464FF446
:10223000DE72F249F2A00AF085FE02E0FAA00AF08E
:1022400081FE002070BD2DE9F04186B080460D462C
:10225000144600260027022D03DA701E06B0BDE8E2
:10226000F081F6A1606820F0BAFE00284DD1072D5C
:1022700001DA401EF2E7A0681FF0EBFB0090E06877
:102280001FF0E7FB049020691FF0E3FB03906069F7
:102290001FF0DFFB0190A0691FF0DBFB0290002222
:1022A0001146E06920F0E7FE80B2ADF81600009814
:1022B00078B100208DF81400684601F0E9FE06466A
:1022C000002E09DA3146DEA00AF03CFE4FF0FF3066
:1022D000C4E701208DF81400182269462F4820F029
:1022E0001DFEDEA00AF02EFECC222C4900200FF0AD
:1022F000DBFA0646002E04DA3146DEA00AF022FEA2
:1023000002E0E4A00AF01EFE14E3E8A1606820F0F9
:1023100066FE48B9022D02DA4FF0FF309EE7E4A0D6
:10232000FFF773FF064605E3EAA1606820F057FE59
:1023300078B9032D02DA4FF0FF308FE70022114603
:10234000A06820F098FE0746F8B2FFF743FF064664
:10235000F0E2E2A1606820F042FE20B9032D03DA2A
:102360004FF0FF307AE7CAE1BEE100003230313889
:1023700031323236000000005B4150505D3A207629
:10238000657273696F6E203A2025642E25642E25B0
:10239000642E25642E25642E25730A00B4070010D0
:1023A0005B4150505D3A206468637020656E203A4E
:1023B0002025640A000000005B4150505D3A20690E
:1023C000706164647220203A2025642E25642E25D5
:1023D000642E25640A000000805008105B415050B4
:1023E0005D3A206D616361646472203A2025303269
:1023F000783A253032783A253032783A25303278BA
:102400003A253032783A253032780A005B41505014
:102410005D3A206E65746D61736B203A2025642EE1
:1024200025642E25642E25640A0000005B4150506F
:102430005D3A2067617465776179203A2025642EC2
:1024400025642E25642E25640A0000005B4150504F
:102450005D3A2073657276657269703A2025642E44
:1024600025642E25642E25640A0000005B4150502F
:102470005D3A206D717474206970203A2025642EB5
:1024800025642E25642E25640A0000005B4150500F
:102490005D3A204D717474706F72743A2025640A2D
:1024A000000000005B4150505D3A20616C6961732F
:1024B0002020203A2025730A000000005B41505084
:1024C0005D3A2070776420202020203A205B25731D
:1024D0005D0A00005B4150505D3A20636F6E736689
:1024E0006C61673A205B25645D0A00005B415050D7
:1024F0005D3A20696E6974666C61673A205B256499
:102500005D0A00005B4150505D3A206B6973666C58
:102510006167203A205B25645D0A00006C43021A63
:102520005B4150505F4552525D3A2025733A256415
:102530002D3E736574204B6973466C61672066613C
:10254000696C65642025640A000000005B415050FE
:102550005D3A20736574204B6973466C6167206F28
:102560006B0A00005D43021A5B4150505F455252B6
:102570005D3A2025733A25642D3E73657420496EBB
:102580006974466C6167206661696C6564202564C6
:102590000A0000005B4150505D3A20736574204989
:1025A0006E6974466C6167206F6B0A007A43021A89
:1025B0005B4150505F4552525D3A2025733A256485
:1025C0002D3E73657420636F6E736F6C6520666C4F
:1025D0006167206661696C65642025640A000000FB
:1025E0005B4150505D3A2073657420636F6E736F6A
:1025F0006C6520666C6167206F6B0A005343021A9A
:102600005B4150505F4552525D3A2025733A256434
:102610002D3E73657420707764206661696C656413
:102620002025640A000000005B4150505D3A207391
:10263000657420707764206F6B0A00006574680011
:102640005B4150505D3A207365742069702066616B
:10265000696C65642025640A000000005B415050ED
:102660005D3A2073657420657468206970206F6B13
:102670000A0000005B4150505D3A2073617665208E
:1026800065746820656E76206661696C65642025D6
:10269000640A00005B4150505D3A2073617665200A
:1026A00065746820656E76206F6B0A007077640031
:1026B0006531383866356533376261616638373180
:1026C00031303363643863323632343461643137E5
:1026D00000000000636F6E736F6C6500696E697453
:1026E000666C61670000000000221146A06820F0BF
:1026F000C2FC0746F8B2FFF752FD06461AE1F4A104
:10270000606820F06CFC78B9032D02DA4FF0FF30DE
:10271000A4E500221146A06820F0ADFC0746F8B2FF
:10272000FFF722FD064605E1EBA1606820F057FCAB
:1027300050B9FFF70CFD0646002EDFDACD22E8493E
:10274000E8A00AF0FFFBF5E0F2A1606820F047FC8A
:1027500000287DD1062D01DA401E7FE54FF46E7111
:10276000EE4820F002FC0120EC4988700A2081F834
:102770004300C91CEAA002680A6042684A600089F6
:1027800008810120C91E81F846000A2081F88700CF
:1027900001F14700E2A10A6802604A6842600989C3
:1027A00001810120DD4981F88A000A2081F8CB00EF
:1027B00001F11300DAA10A6882674A68C2670989D1
:1027C000A0F880100120D54981F8CE00002081F8C2
:1027D000CF00012081F8D100002081F8D200012033
:1027E00081F8D40081F8D50000221146A06820F0BD
:1027F00042FCC1B2C94880F8D61000221146E068F8
:1028000020F039FCC1B2C54880F8D710002211462B
:10281000206920F030FCC1B2C04880F8D8100022F6
:102820001146606920F027FCC1B2BC4880F8D9107D
:10283000012180F8F0100A2180F83111F130BBA19C
:102840000A6802604A68426009890181012100E04A
:1028500069E0F13880F834110A2180F8751100F22E
:102860003510B2A10A6802604A6842600989018194
:102870000121AA4880F878110A2180F8B91100F2E4
:102880007910AAA10A6802604A6842600989018138
:102890000121A24880F8BC11002180F8BD1101215E
:1028A00080F8BF11002180F8C01101209B4981F8F8
:1028B000D4000121994880F8C31100221146A06874
:1028C00020F0D9FBC1B2954880F8C411002211460E
:1028D000E06820F0D0FBC1B2904880F8C51100221A
:1028E0001146206920F0C7FBC1B28C4880F8C611A0
:1028F00000221146606920F0BEFBC1B2874880F813
:10290000C7114FF46E72014601200EF0CDFF06464E
:10291000002E04DA314688A00AF014FB0AE08FA0EA
:102920000AF010FB06E096A061680AF00BFB4FF07E
:10293000FF3093E4304691E42DE9F04180460F46A4
:102940001646032F07DA9548016895A00AF0FAFAAF
:102950000020BDE8F08100221146706820F08BFB5A
:10296000044600221146B06820F085FB0546062C7F
:1029700006D38A48056001688FA00AF0E3FA14E0E4
:102980003DB10120A040854909680843834908609A
:1029900006E00120A0408149096881437F48016029
:1029A0002A4621468AA00AF0CDFA0020D1E7F8B5E0
:1029B0000EF0AAF80646002403258C4903200EF0E9
:1029C000FBFECC20009007E06A46894900200EF00B
:1029D000F8FE044604B904E02800A5F101014DB257
:1029E000F2D100BF002C02DD0098CC282BD021466C
:1029F00080A00AF0A7FA7E48009920F0B6FA87A0D6
:102A00001FF027F87A49086087A01FF022F878495C
:102A1000086189A01FF01DF87549C86086A01FF0E5
:102A200018F87349486084A01FF013F87049886053
:102A300040F25B70C8824022AFF28C316C48483063
:102A400020F0B0FA02E07EA00AF07CFA4FF46E703B
:102A500000906A46314901200EF0B3FE0446002C76
:102A600003DD0098B0F56E7F1BD021467AA00AF0F6
:102A700069FA2A48009920F078FA0120274908705D
:102A800081F8EE0081F8DC0181F8CA0281F8D400F7
:102A90000121224880F8C21180F8B01280F89E13FC
:102AA00002E076A00AF04EFA44F6706000906A46A2
:102AB0007A4902200EF085FE0446002C04DD44F61F
:102AC00070610098884201D02146E9E0F0E0000002
:102AD0006B6973666C616700726573746F72650011
:102AE0004743021A5B4150505F4552525D3A2025E0
:102AF000733A25642D3E5365742064656661756C78
:102B00007420636F6E666967206572726F72210A46
:102B10000000000066756E63000000008008001071
:102B200031323334353637383900000039383736EA
:102B300035343332310000005B4150505D3A207330
:102B400061766520636F6E74726F6C206D6F646563
:102B5000206661696C65642025640A005B41505001
:102B60005D3A207361766520636F6E74726F6C20BE
:102B70006D6F646520656E76206F6B0A0000000043
:102B80005B4150505D3A204E6F7420737570706FCA
:102B9000727420636D642025730A000028500810A9
:102BA0005B4150505D3A20637572207072746F6E95
:102BB0003D307825780A00005B4150505D3A207323
:102BC0006574207072746F6E3D307825780A00004D
:102BD0005B4150505D3A20736574206D6F642564CD
:102BE000207072746F6E3D25640A0000005008105A
:102BF000B40700105B4150505D3A206C6F61642057
:102C0000656E76206661696C65643D25642C20756F
:102C100073652064656661756C740A003139322E03
:102C20003136392E302E31003235352E3235352EB3
:102C30003235352E30000000302E302E302E300050
:102C40005B4150505D3A206C6F6164206C70632072
:102C5000656E76206F6B0A005B4150505D3A206CC8
:102C60006F616420636F6E74726F6C206D6F64654A
:102C7000206661696C65643D25640A005B415050C3
:102C80005D3A206C6F616420636F6E74726F6C20AC
:102C90006D6F6465206F6B0A00000000380C001037
:102CA000E9A00AF04FF9F048009920F05EF902E03F
:102CB000EEA00AF047F9F3480AF0C0FAF2480AF029
:102CC000BDFAF2480AF0BAFA2046F8BD70B50546DA
:102CD0000024EF484068686018222946EC4820F03C
:102CE0001DF9CC22EA4900200EF0DEFD0446002C3E
:102CF0000ADAE848007800F0080070B12146AFF227
:102D00008C600AF01FF908E0E248007800F0080043
:102D100018B1AFF280600AF015F9204670BD4FF48B
:102D2000FA50704738B504460DF0EEFE05465421C2
:102D3000204620F01AF9D8A0DAA3DDA220210090C5
:102D400004F10A0020F084FD3DB1202205F12401A8
:102D500004F12A0020F026F905E02422D6A104F18E
:102D60002A0020F01FF9002038BD2DE9F84F054654
:102D700088462C464FF00009CB462078CF2803D058
:102D80004FF0FF30BDE8F88F2079032802DB6FF0A9
:102D90000100F7E7E0880830404502D96FF00200F3
:102DA000F0E7022704E0E85D584400F0FF0B7F1CC9
:102DB000E0880830B842F6D86878584502D06FF0FD
:102DC0000300DFE704F1080AE688E0880090E37872
:102DD000A2782179BDA00AF0B5F8207920B10128A8
:102DE00008D0022815D10CE0CC2E02D06FF00900DB
:102DF000C8E711E0B6F56E7F02D06FF01300C1E7AF
:102E00000AE044F67060864202D06FF01D00B9E718
:102E100002E06FF00400B5E700BF2079324651466A
:102E20000EF042FD8146B9F1000F09DA4B464FF42E
:102E30002772B049B0A00AF085F86FF00500A1E74D
:102E400000209FE72DE9F843064688469146444610
:102E5000D9F80050032E03DB4FF0FF30BDE8F883B4
:102E6000082D02D26FF00100F8E7002020606060BA
:102E7000CF2020702671083D26B1012E11D0022EE0
:102E80002FD11EE0CC20E080E088A84202D96FF06C
:102E90000A00E3E7E2887E4904F1080020F03EF8EA
:102EA00022E04FF46E70E080E088A84202D96FF013
:102EB0001400D3E7E288974904F1080020F02EF8C7
:102EC00012E044F67060E080E088A84202D96FF01A
:102ED0001E00C3E7E288644904F1080020F01EF8F0
:102EE00002E06FF00400B9E700BFE0880090E378EB
:102EF000A278217988A00AF025F8E08800F1080579
:102F0000022705E0607818F80710084460707F1CFD
:102F1000AF42F7D3C9F8005000209FE72DE9F041F8
:102F200006460F4600208649087086490870012E23
:102F300001D0BDE8F0810024002514E025B1012D69
:102F400005D0022D0CD106E00834CC3409E0083459
:102F500004F56E7405E0083444F67060044400E043
:102F600000BF00BF6D1C032DE8DB214676A009F0F1
:102F7000E9FF2046DDE72DE9F04106468846344664
:102F8000002741463046FFF7F0FE0746002F09DADA
:102F90003B4640F22F32724957A009F0D3FF384622
:102FA000BDE8F0816078217808446178084464497C
:102FB0000978084462490870E08800F1080506E0D5
:102FC000705D5F49097808445D4908706D1C45458E
:102FD000F6D30020E4E72DE9F04104460D462646ED
:102FE000002758480078032803DB00202860BDE84C
:102FF000F0812A46214653480078FFF723FF074611
:10300000002F08DA3B464FF4557256493AA009F0B2
:1030100099FF3846EBE770783178084471780844B6
:103020004749097808444649087046480078401CDA
:10303000444908700020DAE7014611B140480078A1
:1030400008700020704700005B4150505D3A206CD2
:103050006F61642049522064617461206661696C0B
:1030600065643D25640A0000380C00105B41505037
:103070005D3A206C6F616420495220646174612064
:103080006F6B0A002C500810405008105450081064
:10309000B40700102850081031353A35373A343823
:1030A00000000000446563203236203230313800A1
:1030B000257320257300000031373838393031331B
:1030C0003234353637383937000000005B41505014
:1030D0005D3A207772697465206366675B25642EAC
:1030E00025645D207665723D2564206C656E3D2506
:1030F000640A00008843021A5B4150505F455252F7
:103100005D3A2025733A25642D3E72746E3D256428
:103110000A000000800800105B4150505D3A2072A8
:10312000656164206366675B25642E25645D207697
:1031300065723D2564206C656E3D25640A000000C3
:1031400024500810255008105B4150505D3A206112
:103150006C6C20636667206C656E3D25640A000018
:103160009843021AA443021A70B504460D46E14C76
:103170002946E1A009F0E6FE2188E2A009F0E2FE7E
:103180006188E4A009F0DEFEA188E6A009F0DAFE7D
:10319000E188E7A009F0D6FE2189E9A009F0D2FE76
:1031A0006189EBA009F0CEFEA189EDA009F0CAFE6D
:1031B000E189EFA009F0C6FE218AF1A009F0C2FE64
:1031C000618AF3A009F0BEFEA18AF5A009F0BAFE5B
:1031D000E18AF7A009F0B6FE70BD10B5F9A1C548A7
:1031E000FFF7C2FFF9A1C3483030FFF7BDFFF9A1D7
:1031F000C0481830FFF7B8FFF7A1BE486030FFF7AE
:10320000B3FFF6A1BB484830FFF7AEFF01F0F4FB77
:1032100010BD2DE9F04107460D461646022D03DA92
:103220004FF0FF30BDE8F0810022114670681FF0BA
:1032300022FF044614B9FFF7D0FF08E023465D22C1
:10324000E749E8A009F07EFE4FF0FF30EAE700BF53
:103250000020E7E72DE9F843074688461446002595
:10326000A9460026002C02D80020BDE8F8830FF004
:1032700068FD8146002635E008232246414638464F
:1032800016F0B1FC0546A54200D12CE015F10B0F5C
:1032900008D02B468A22DD49DDA009F053FE4FF00D
:1032A000FF30E2E741F28831484608F0E6F848B1DD
:1032B00023469022D549DFA0009509F043FE6FF028
:1032C0000100D2E70A2008F046F9701CC6B2B6F534
:1032D000FF7F07DD9A22CD49E0A009F033FE6FF0B1
:1032E0000200C2E7C8E700BF2046BEE770B50DF098
:1032F0000BFC044600250021084617F0E5FC54B1FC
:1033000094F8640060B1DF48D4F865100160B4F847
:103310006910818004E0DB488078401CD9498870BE
:10332000D948007DD7490874D748007D78B9D64878
:10333000006860B10846D4490968C0F81110D24944
:103340000969C0F81510D049C968C0F81910CD48EE
:1033500009F0B1FB0546002D01DA284670BDCA48C8
:10336000007D60B1C849C748D0F811000860C54861
:10337000D0F815000861C348D0F81900C86001F002
:10338000B5FA01F0FFFAC14809F058FF2846E5E711
:103390002DE9F84304460F4690461E460020009053
:1033A000002506F120096069401C6061606917F022
:1033B000DFFC6061384617F0DBFCA061404617F087
:1033C000CBFCA083304617F0C7FCE083B048006810
:1033D0002060A06817F0CCFCA060002017F0C8FCAB
:1033E0002061AC48008817F0B7FCE0816A4641F2E2
:1033F0008831A948006810F0EEFB9DF8000040B14C
:103400004FF48772A549A6A009F09CFD681EBDE88F
:10341000F883AF480068002802DA6FF001050DE07C
:103420004A462146AA480068FFF714FF05464D4565
:1034300002D06FF0020500E0002500BF964800684A
:1034400010F06EFC002D06DA2B464FF49172934972
:10345000A0A009F077FD2846D9E710B50446202141
:1034600020461FF082FD002017F082FC206110BD75
:103470002DE9F04F87B0074600240025A246A34659
:1034800007F12004D7F814909C480078012820D137
:103490009B4800689B490968884206D398480068A1
:1034A00098490968A0EB010807E096480068C0F158
:1034B000FF309349096800EB010840F6B8308045B9
:1034C00005D300208D4908707249088001E040F65C
:1034D000B839484640F6D412A9EB0201914505D00F
:1034E00005DCA0F6C4100F2802D20DE19DE115E124
:1034F00098E10000D45D001025735F53544154538C
:103500000A000000097C2D786D69743A0909257557
:103510000A000000097C2D726563763A0909257559
:103520000A000000097C2D66773A090925750A0012
:10353000097C2D64726F703A090925750A00000034
:10354000097C2D63686B6572723A0925750A000063
:10355000097C2D6C656E6572723A0925750A00004A
:10356000097C2D6D656D6572723A0925750A00003A
:10357000097C2D72746572723A0925750A00000083
:10358000097C2D70726F746572723A0925750A0094
:10359000097C2D6F70746572723A0925750A0000F6
:1035A000097C2D6572723A090925750A0000000030
:1035B000097C2D63616368656869743A0925750A39
:1035C00000000000455448415250000049434D500E
:1035D0000000000049500000544350005544500082
:1035E000AF43021A5B4E45545F4552525D3A202567
:1035F000733A25642D3E636D645B25755D206E6FA7
:103600007420737570706F72740A0000BB43021AE5
:103610005B4E45545F4552525D3A2025733A25640E
:103620002D3E6661696C2C72746E203D2025640A03
:10363000000000005B4E45545F4552525D3A202524
:10364000733A25642D3E74696D656F75743A207305
:103650003D25642072746E3D25640A005B4E45541E
:103660005F4552525D3A2025733A25642D3E4F73D3
:10367000616C54696D6541667465724D7320666155
:10368000696C0A0080500810B4070010E050081060
:10369000705008107650081068500810C643021A7F
:1036A0005B4E45545F4552525D3A2025733A25647E
:1036B0002D3E676574206C6F636B206661696C2CAE
:1036C0006E6F742073656E642061636B0A00000086
:1036D0006C5008105B4E45545F4552525D3A2025B0
:1036E000733A25642D3E73656E642061636B2065BB
:1036F00072722C72746E3D25640A000078500810B6
:103700001C0008107C500810DFE800F01C8CF68CC0
:10371000F58CF48CF38CF28CF18C62000A297DD04C
:1037200008DC02297BD004297AD0062979D008291F
:1037300078D15AE10F2976D0112975D0B1F5F27FF1
:10374000F6D1B9E1264606F140023146F9A009F06A
:10375000F9FB40223146FEA01FF065FC90B148F213
:10376000010AFE480088401CFC4908800846008881
:10377000052806D10120FA490870FA480068FA497C
:1037800008609FE1402206F14001F8481FF04BFC21
:1037900090B148F2020AF1480088401CEF490880C5
:1037A00008460088052806D10120ED490870ED483B
:1037B0000068ED49086085E10020E8490880EB4891
:1037C000483890F8890010B948F20A0A7AE179E19C
:1037D0002646E6484838007D3070E4494839C868D4
:1037E00017F0C6FAF060E1494839086917F0C0FAE5
:1037F000B060DE494839086817F0BAFA7060DB49F2
:103800004839886817F0B4FA3061D8494839C88A0D
:1038100017F0A2FA70804FF0140B53E185E0E5E059
:1038200046E04FE04BE16CE076E0264630788DF8DC
:103830001800706817F0A9FA0190B06817F0A5FA9F
:103840000590F06817F0A1FA0490306917F09DFA1E
:103850000390708817F086FAADF81A00C34848380C
:1038600040680290C149483903988968884204D069
:103870000020BE49483981F88A00182201A9BB48B6
:1038800048381FF04BFBCC22B849483900200EF0D5
:103890000BF80546002D07DA2B464FF4D972B449D0
:1038A000B4A009F04FFB02E0BCA009F04BFB09E11A
:1038B00026464FF46E72BF4930461FF02FFB4FF47F
:1038C0006E7BFFE026464FF46E723146B9481FF01A
:1038D00025FB4FF46E72B74901200DF0E5FF054658
:1038E000002D0ADA2946B4A009F02CFB08E0C1E05B
:1038F0009FE055E078E063E02CE0B8A009F022FBFF
:10390000E0E026463078012802D1FEF763FC02E0B1
:103910000020FEF75FFCD5E020469449483991F835
:10392000881001704FF0010BCCE02646B4480078B7
:1039300018B900203060706009E0B249086817F0DB
:1039400017FA3060AF49486817F012FA70604FF00C
:10395000080BB7E0264606F14000FEF756FC054688
:10396000002D08DA40F20B228149A7A009F0EAFAFB
:1039700048F2080AA6E07D48483890F8890070B9F6
:103980000120FEF70CFC0546002D08DA40F2152256
:103990007749A7A009F0D6FA48F2080A92E091E028
:1039A00000231A4619463846FFF7F2FCABA009F08F
:1039B000C9FA4FF47A7007F0CEFD07F0DBFD81E025
:1039C00026463046FFF7AEF90546F08817F0C4F9F1
:1039D000F080308917F0C0F93081306D17F0C8F9E8
:1039E00030654FF0540B6DE06CE06BE026464022F2
:1039F00006F140015D481FF016FB40B140F247223E
:103A00005B499EA009F09EFA48F2020A5AE0FEF7CE
:103A10009EFB0546002D08DA40F24F225449A0A033
:103A200009F090FA48F2080A4CE0A4A009F08AFADA
:103A300048E0A848007840B140F25B224C49A6A07B
:103A400009F080FA48F2090A13E04FF4A8722146FF
:103A5000AC481FF063FAAB49086817F096F9A9491A
:103A60000860486817F091F9A64948600120994913
:103A7000087027E097480078022808D140F26D22AC
:103A80003B49A1A009F05EFA48F2090A13E04FF49D
:103A9000A87221469B481FF041FA9A49086817F01E
:103AA00074F998490860486817F06FF995494860BB
:103AB00002208849087005E048F20B0A02E04FF442
:103AC000004A00BF00BF5B46524629463846FFF712
:103AD0005FFC0543284607B0BDE8F08F2DE9F043B1
:103AE00087B005460F464FF000092C46A06817F036
:103AF0004CF9A060A08917F035F9A081E08917F092
:103B000031F9E081206917F040F92061606917F010
:103B10003CF96061A06917F038F9A061A08B17F03B
:103B200021F9A083E08B17F01DF9E0836069B0F5FF
:103B30007A7F01E15B4E45545D3A20726571206CDD
:103B40006F67696E3A2025732025730A0000000014
:103B50004B6564615F557365720000007650081014
:103B6000785008101C0008107C500810FC0700104A
:103B7000D343021A5B4E45545F4552525D3A2025AD
:103B8000733A25642D3E73657420657468206970EE
:103B9000206661696C65642025640A005B4E4554AB
:103BA0005D3A2073657420657468206970206F6BBE
:103BB0000A000000800800105B4150505D3A2073FD
:103BC00061766520636F6E74726F6C206D6F6465D3
:103BD000206661696C65642025640A005B41505071
:103BE0005D3A207361766520636F6E74726F6C202E
:103BF0006D6F646520656E76206F6B0A00000000B3
:103C000020000810200200105B4E45545F455252C0
:103C10005D3A2025733A25642D3E736574207061EA
:103C20007373776F7264206661696C6564210A0042
:103C30005B4E45545F4552525D3A2025733A2564E8
:103C40002D3E73657420696E697420666C6167200F
:103C50006661696C6564210A000000005B4E455492
:103C60005D3A207265626F6F742073797374656D4D
:103C7000206E6F772E2E2E0A000000005B4E4554FA
:103C80005F4552525D3A2025733A25642D3E70619E
:103C900073737764206572726F72210A00000000EE
:103CA0005B4E45545F4552525D3A2025733A256478
:103CB0002D3E6661696C6564210A00005B4E4554C7
:103CC0005D3A20726573657420636667206F6B0AC6
:103CD00000000000745008105B4E45545F4552527E
:103CE0005D3A2025733A25642D3E6669727374200F
:103CF000757064617465206E6F742066696E697397
:103D000068210A00B45808105B4E45545F45525272
:103D10005D3A2025733A25642D3E7365636F6E64AA
:103D200020757064617465206E6F742066696E69B9
:103D30007368210A000000000AD14FF42B72F54984
:103D4000F5A009F0FFF84FF47A7007B0BDE8F083F2
:103D5000FD48007800F0020088B12023E08BA18BA1
:103D6000A269CDE90403CDE90221D4E90401CDE93A
:103D70000001E389A289F548A16809F0E3F8E18B25
:103D8000A7F12000814213D06169CDE90001E38BE6
:103D90004FF42F72DF49EEA009F0D4F8002348F267
:103DA000050219462046FFF7F3FA4FF0FF30CCE743
:103DB00004F12008E448007800F00200D8B1E18B5B
:103DC000F3A009F0BFF800260FE0F11706EB117120
:103DD0000911A6EB011111B9DAA009F0B3F818F82E
:103DE0000610F0A009F0AEF8761CE08BB042ECDCD7
:103DF000D4A009F0A7F82046FFF73AFB81464846D1
:103E0000A3E7ADF5C06D00200C90002542F21070C4
:103E10000B9010200290FFF769FA01200FF058FE76
:103E2000E24908600846006858B940F2EE22E049CD
:103E3000E0A009F087F803E04FF47A7007F08BFBFD
:103E4000FAE700BF4FF0FF30E14908600020E14988
:103E50000860CDF8F005CDF8F405CDF8F805CDF8FB
:103E6000FC0502208DF8F1054FF4FA5016F074FFAE
:103E7000ADF8F205002016F07BFFCDF8F405002226
:103E80000121022015F02CFF0746002F0CDA4FF419
:103E90004072C749D0A009F055F84FF47A7007F086
:103EA0005AFB4FF0FF37CDE710220DF5BE613846C3
:103EB00015F0B1FB054665B140F20A32BC49D5A008
:103EC00009F040F84FF47A7007F045FB4FF0FF37E8
:103ED000B8E70521384615F078FC054665B14FF482
:103EE0004572B349DAA009F02DF84FF47A7007F063
:103EF00032FB4FF0FF37A5E700BF4FF0FF30B4496A
:103F0000086000200C900CAAE049384616F00AFD23
:103F100002AA0DF5BC61384615F09AFA0646002E45
:103F200000DAEAE7DAA009F00DF8A94806600420F3
:103F30000BAB41F20602D11F0090304616F043FC55
:103F4000054635B12B4640F22F329949D9A008F0E9
:103F5000F9FF0EF0F6FE80460DF2E4501DF0D9FD9B
:103F6000814642464946DFA008F0ECFF01200C9054
:103F70000CAAC649384616F0D5FC88E0E34800781C
:103F800000283DD102AA0DF5BC61384615F060FA53
:103F90000646002E34DD0EF0D4FE80460DF2E450CD
:103FA0001DF0B7FD814642464946D9A008F0CAFF38
:103FB00004200BAB41F20602D11F0090304616F0F0
:103FC00002FC054635B12B4640F24B327849B9A088
:103FD00008F0B8FF03A8FFF740FA40F6DF1008909A
:103FE00000231A46194603A8FFF7D2F94FF4FA70D6
:103FF00007F0B1FA7648006815F062FB7448066075
:1040000040F2AC510DA81EF0B0FF40F2AC520DA929
:104010006F48006815F04EFD0446002C0FDA234669
:104020004FF458726249C7A008F08CFF68480068D6
:1040300015F046FB4FF0FF30654908605DE7ACB90D
:104040000EF07FFE80460DF2E4501DF062FD8146C9
:1040500042464946C3A008F075FF5D48006815F068
:104060002FFB4FF0FF305A49086046E721460DA864
:10407000FFF734FD0546B5F57A7F08D1544800684E
:1040800015F01EFB4FF0FF305149086035E775E72A
:104090002DE9F0410446254604F11006371F3A4643
:1040A0003146284608F00DFABDE8F081C6B000257B
:1040B0000DF1180808F120056BE29448007820B94A
:1040C0004FF4FA7007F047FA63E2002700248F48A4
:1040D000007801281DD17AE14821AB481EF045FF48
:1040E000002C03DA4FF47A7007F035FAA7481DF078
:1040F00010FD8346A54890F84D01A44991F84C1154
:10410000CDE901070091A1485A4600F10801436832
:104110003EE190E1E143021A5B4E45545F45525245
:104120005D3A2025733A25642D3E7365727665727B
:10413000206C6F73742C2072652D636F6E6E6563D7
:10414000742069740A000000285008101451021AE3
:104150005B4E45545F4552525D3A2025733A2564C3
:104160002D3E726376206C656E206572722C206D18
:1041700073676C656E3D2564207263766C656E3D79
:104180002564206576743D307825780A00000000AB
:104190005B4E45545D3A2072656376656420256404
:1041A0000A00000020253032780000006850081016
:1041B000EF43021A5B4E45545F4552525D3A20254B
:1041C000733A25642D3E6E6F2073656D0A00000002
:1041D0006C500810705008105B4E45545F455252A9
:1041E0005D3A2025733A25642D3E637265617465DE
:1041F00020736F636B6574206661696C65642C2045
:1042000074727920616761696E20616674657220DD
:1042100031730A005B4E45545F4552525D3A20258A
:10422000733A25642D3E62696E6420736F636B651B
:1042300074206661696C65642C20747279206167F2
:1042400061696E2061667465722031730A00000036
:104250005B4E45545F4552525D3A2025733A2564C2
:104260002D3E6C697374656E20736F636B6574208B
:104270006661696C65642C2074727920616761697C
:104280006E2061667465722031730A007E66048058
:104290005B4E45545D3A20576169746520636C69D3
:1042A000656E7420746F20636F6E6E6563742E2E5E
:1042B0002E0A00005B4E45545F4552525D3A202560
:1042C000733A25642D3E73657420534F5F524356F5
:1042D00054494D454F206661696C65643D25640A0B
:1042E000000000005B4E45545D3A20636F6E6E65C2
:1042F0006374656420746F20636C69656E745B25FC
:10430000735D2061742025756D730A007450081068
:104310005B4E45545D3A20636F6E6E6563746564F1
:1043200020746F20616E206F7468657220636C6901
:10433000656E745B25735D2061742025756D730A4D
:10434000000000005B4E45545F4552525D3A202507
:10435000733A25642D3E72656164206572723D2555
:1043600064210A005B4E45545D3A20636C69656EBA
:10437000745B25735D20636C6F73656420617420CA
:1043800025756D730A0000006C560810B4580810AB
:1043900080A008F0D7FD8F498FA008F0D3FD8D498C
:1043A0004839924A0868483111F02EFC904800685C
:1043B000904988420AD08E484FF471728E49036842
:1043C0008EA008F0BFFD4FF0FF3400E005E0781C40
:1043D000C0B2074603287FF77FAE00BF002C02DA89
:1043E00048F2080000E0002082464046FFF735F81A
:1043F0004FF41E60C8F814002E467D49086816F078
:10440000B7FC354630607A480079307140227849EF
:10441000491D701D1EF082FD002086F845004FF0FA
:1044200048094B46524621464046FEF7B1FF002060
:104430007E490870ACE089E000206D4981F84500B4
:10444000002C03DA4FF47A7007F085F86148483899
:104450001DF05FFB06465F48483890F84D015D4906
:10446000483991F84C11CDE9010700915948483875
:10447000324600F1080143686DA008F063FD55491C
:1044800055A008F05FFD0020059005AA02215148C3
:104490004038FCF7A3FF0446002C07DA234640F21D
:1044A000F632554972A008F04DFD4FE049494839B0
:1044B000794A0868483111F0A7FB04464548483856
:1044C0004068A0420AD0234640F2FF324A4973A016
:1044D00008F038FDFDF707F97A4C37E004A8FCF73F
:1044E000B4FF0446002C07DA23464FF481624249A8
:1044F00075A008F027FD29E03648483890F84C01AF
:1045000018B33448483890F84D019DF8101088428F
:104510000DD03048483890F84D0100909DF810308B
:1045200040F21142344973A008F00CFD0EE07E48C1
:10453000007800F0020040B12648483890F84D213C
:104540009DF8101079A008F0FDFC05E0781CC0B2C1
:10455000074603287FF770AF00BF4FF47A7006F06C
:10456000FAFF002C02DA48F2080000E00020824640
:104570004046FEF772FF40F6E110C8F81400002331
:10458000524621464046FEF703FF002027490870A7
:1045900000BF92E55B4E45545D3A206669727374C4
:1045A0002074667470207570646174696E6720256C
:1045B000732066726F6D20257320737A3D257520F8
:1045C00073756D3D25643A2564207472793D2564C8
:1045D0000A000000FC5808105B4E45545D3A206606
:1045E000696C653A2025730A000000000918001A5A
:1045F0006C56081078563412FA43021A5B4E455432
:104600005F4552525D3A2025733A25642D3E476539
:10461000744657496E666F206661696C206D6167EC
:1046200069633A307825780A000000007450081059
:104630005B4E45545D3A207365636F6E642074660B
:104640007470207570646174696E672025732066CC
:10465000726F6D20257320737A3D25752073756DFB
:104660003D25643A2564207472793D25640A000072
:104670005B4E45545F4552525D3A2025733A25649E
:104680002D3E46775570646174654F70656E206687
:1046900061696C3D25640A00F716001A5B4E4554AB
:1046A0005F4552525D3A2025733A25642D3E54668B
:1046B00074705265637646696C65206661696C3D0D
:1046C00025640A0018FCFFFF5B4E45545F455252BB
:1046D0005D3A2025733A25642D3E46775570646116
:1046E0007465436C6F7365206661696C3D25640A6F
:1046F000000000005B4E45545F4552525D3A202554
:10470000733A25642D3E636865636B2073756D2075
:10471000657272212063616C633D25782072637637
:1047200065643D25780A0000285008105B4E45540A
:104730005D3A20667720636865636B2073756D2032
:104740006F6B2C2063616C633D2578207263766506
:10475000643D25780A000000F0B5B3B005460CF0C2
:10476000D3F90646002415AB16AA17A918A808F015
:1047700087FB682119A81EF0F8FB9DF8540018B1BA
:10478000012016F0E9FA00E00020ADF864009DF881
:10479000630000069DF8621040EA01409DF8611038
:1047A00040EA01209DF860100843CDF866009DF8AE
:1047B0005F0000069DF85E1040EA01409DF85D1024
:1047C00040EA01209DF85C100843CDF86A009DF88E
:1047D0005B0000069DF85A1040EA01409DF8591010
:1047E00040EA01209DF858100843CDF86E000020E3
:1047F0008DF87A0000211F91ADF8C010464800687E
:104800000A21B0FBF1F7384616F0B2FACDF8720083
:104810002EB13189706840EA0140CDF87600012060
:104820008DF8C2008DF8C3002819662219A91EF060
:1048300075FB04F1660084B29DF8C200C8B12C215A
:104840000AA81EF092FB202234A10AA81EF0AAFB9F
:1048500036B10B2206F124010DF149001EF0A2FB36
:1048600028192C220AA91EF059FB04F12C0084B24D
:1048700000BF9DF8C30060B124210CA81EF075FB99
:104880002819212229A11EF049FB04F1210084B23C
:1048900000BF402105A81EF068FB26A000210422CD
:1048A000CDE90112CDE903100220052324A2402105
:1048B000009005A81EF0CCFFF7222046611C8CB2A8
:1048C0002A542046611C8CB22A542819402205A97A
:1048D0001EF024FB04F1400084B2204633B0F0BD4A
:1048E00001460020704701460020704710B518218E
:1048F00018481EF03AFB17480C3008F0B1FA164879
:10490000144908601548486015488860084610F04A
:1049100005FF002010BD00001C000810524F4F4D35
:10492000204B49542031303000000000524B3130D0
:1049300030000000323031383132323600000000B1
:104940005625642E25642E25642E25642E25642E7E
:1049500025730000045A08105947001AE148001A4C
:10496000E748001A10B5044634B1274808F06DFE38
:10497000012009F0E0F802E0244808F066FE24482F
:10498000047010BD10B520480021016041608160B5
:1049900001201D4988721F4808601F484860542143
:1049A0001E481EF0E2FA1EA01C4908602748486015
:1049B000274888602748C860274848614020086128
:1049C0008861084611F070FC10BD70B505461048AE
:1049D000007858B10021084606F080FB0446002C00
:1049E00004DD12F00CF80020FFF7BCFF11F0F6FE1A
:1049F000002011F07FFD70BD10B50848C28E818E79
:104A000016A008F09FFA10BDFC5A0010A80700106D
:104A100039000810D568011A7B69011AA85A0010DC
:104A20000D0A57656C636F6D6520746F20524B31B2
:104A300030302D424F4F540D0A506C656173652024
:104A4000696E707574207077643A0000FC0700107E
:104A50006549001A085B0010485B00105B4150502C
:104A60005D3A2074656C6E65742073656D206572A7
:104A7000723A2067626C3D25752074783D25750A71
:104A80000000000070B505460A2D02DB4FF0FF3034
:104A900070BD05EB4500984901EB8004A37861786F
:104AA0002078E02204F01AFAE07805F043F9A068D3
:104AB00005F029FA62792179A06805F0FCFAA0686E
:104AC00005F030FA0121A06805F020FA0020DFE7A8
:104AD00070B5044604EB4400874901EB80060A2CBC
:104AE00001DB002070BD0025B06805F02DFB0546F8
:104AF0002846F7E770B500247F4D0C350120FFF7FD
:104B0000C1FF0120FFF7E4FF044641F2883006F0C0
:104B100022FD0120FFF7DCFF04460021A86805F014
:104B2000F5F9204670BD70B50024734D00210120B9
:104B3000FBF77DFC0020FFF7A5FF0020FFF7C8FF73
:104B4000044641F2883006F006FD0020FFF7C0FF62
:104B500004460021A86805F0D9F9204670BD70B55B
:104B6000002401210846FBF762FC634D0020FFF79B
:104B700089FF0020FFF7ACFF044641F2883006F0C1
:104B8000EAFC0020FFF7A4FF04460021A86805F016
:104B9000BDF9204670BD2DE9F04180460C46154612
:104BA00000260027022C07DA7F22544954A008F07F
:104BB000C9F90020BDE8F0810022114668681EF0A6
:104BC0005AFA06463EB9FFF795FF0746394655A003
:104BD00008F0B8F910E0012E07D1FFF7A4FF07464F
:104BE000394657A008F0AEF906E0FFF7B8FF0746D0
:104BF00039465AA008F0A6F90020DBE710B5782165
:104C00003D481EF0B2F901203B4908700C20487065
:104C1000042088700120087148715748886001207D
:104C2000C87008730D213448417304218173012138
:104C3000017400214174504941610021C1734F4802
:104C400008F0FCFA10BD2DE9F04100BF002500245A
:104C5000FFF750FF074640F65570784348494860D3
:104C60000846406818B900BF0020086007E0FFF759
:104C700076FF054605EB4500400041490860404885
:104C800040684049884235D93F480078401C3E4939
:104C900008703B4841683C4802783CA008F052F953
:104CA00039480078052825DD3548416836480278BE
:104CB00041A008F047F900240FE0264604EBD67027
:104CC0004010A4EB4000C1B20320FBF7B0FB4FF44F
:104CD000FA7006F040FC601CC4B20A2CEDDB01F057
:104CE0004CF94FF47A7006F036FCFBF7DEFE00203C
:104CF00025490870BDE8F0811C5A08100F44021ABB
:104D00005B4150505F4552525D3A2025733A25640D
:104D10002D3E6D696E206E6565642032206172677C
:104D2000730A00005B4150505D3A20486C77383080
:104D3000313220506F7765723A25750A0000000005
:104D40005B4150505D3A20486C7738303132205604
:104D50006F6C746167653A25750A00005B415050BD
:104D60005D3A20486C773830313220437572726575
:104D70006E743A25750A00000040084028020010B1
:104D800020020010006A18003C020010576172698E
:104D90006E6720506F7765723A25646D57203E200C
:104DA000313630303030306D412045787054696D87
:104DB00065733A25640A0000576172696E67205076
:104DC0006F7765723A25646D57203E20313630305A
:104DD0003030306D412045787054696D65733A25E7
:104DE0006420506F77657220646F776E210A00002F
:104DF00070B500BF0024002600BF20E0FA49601C07
:104E000051F8200051F8241088420AD3F649601C5A
:104E100051F8200051F82410401AF44941F82400B8
:104E20000CE0F14850F82400C0F1FF31EE4A601C5C
:104E300052F820000844ED4941F82400641CEA4877
:104E4000D0F8D007A042D9D8E748D0F8E807E6491B
:104E5000D1F8E417884207D3E348D0F8E807E249DD
:104E6000D1F8E417461A08E0DF48D0F8E407C0F1AB
:104E7000FF30DD49D1F8E8174618DD48B0FBF6F001
:104E8000DA49C1F8D007DB49097801EB8102C2EBAE
:104E90000121D94A02EBC1004FF4FB62D3491EF055
:104EA0003DF844F67062D44902200CF0FDFC054642
:104EB000002D04DA2946D1A008F044F802E0D7A07A
:104EC00008F040F870BD10B5C74890F8E007012819
:104ED00004D0C54890F8E007022824D1C248D0F891
:104EE000D007C149D1F8D417884216D8BE48D0F8A7
:104EF000D807BD49D1F8D017BB4A42F8210003209A
:104F0000114681F8E0070021CB4804F0FFFF0D2097
:104F100000F0D4FAFFF76CFF05E0B348D0F8D007F3
:104F2000B149C1F8D40710BD10B500240523E02213
:104F30000221184603F0D2FF062004F0FBFEBE4813
:104F400004F0E1FF02220021BB4805F088F8BA48CE
:104F500004F0E8FF0121B84804F0D8FF601EB6490C
:104F600008601D2002F050F904462146B3A007F066
:104F7000E9FF0D2000F0ABFA0D2000F094FA10BD0F
:104F800070B505460C4616462821B2481DF0EDFFC7
:104F9000002E25D10220AF49086008464560012057
:104FA00008720221AB48417281720A21C172D0217C
:104FB000017314B90021417302E00121A548417336
:104FC000A448847302210174052141740221817473
:104FD0000B21C174D021017500214175847552E007
:104FE000012E25D102209B4908600846456001201A
:104FF000087202219748417281720A21C172D02140
:1050000001730021417384730221017405214174ED
:10501000022181740B21C174D021017514B90021C2
:10502000417502E001218B4841758A4884752AE068
:105030000220884908600846456001200872022164
:105040008448417281720A21C172D021017314B95E
:105050000021417302E001217E4841737D48847341
:105060000221017405214174022181740B21C17454
:10507000D021017514B90021417502E00121754864
:10508000417574488475734805F031F970BD10B5E9
:10509000044640F2EC7154481DF067FF4FF4FB6189
:1050A00052481DF062FF5348047000204E4981F8B9
:1050B000E007FFF739FF10BD2DE9F04107460C4628
:1050C00015460026022C05DA63A007F03BFF701E90
:1050D000BDE8F0810022114668681DF0CCFF06464D
:1050E000F0B2FFF7D4FF0020F2E710B586B0044617
:1050F0005F4804F008FF00208DF8100001200590A3
:1051000004AA00215A4804F0A3FE00208DF80400F0
:1051100001208DF805008DF8070000208DF80600AD
:105120008DF80800039401A9514804F004FF504889
:1051300004F0F8FE01214E4804F0E8FE4FF0FF3085
:105140004B4908600E2000F0C2F90E2000F0ABF9C8
:1051500006B010BD70B504460D464FF4FB61234800
:105160001DF003FF04EB8400C0EB0420224A02EB95
:10517000C0014FF4FB621D481DF0D0FE3D48057094
:1051800000201A49C1F8D407D1F8D417174A52F8A9
:105190002100FFF7AAFF1549D1F8D00735490A7851
:1051A0003221FFF7EDFE70BD2DE9F04180460D463E
:1051B00014460027032D05DA27A007F0C3FE781E4A
:1051C000BDE8F0810022114660681DF054FFC7B2AF
:1051D00000221146A0681DF04EFFC6B23146384687
:1051E000FFF7B8FF0020EBE7BC5A0810A8620810D0
:1051F00000D2496BF5500810380C00105B4150503C
:105200005D3A207361766520697220646174612063
:105210006661696C65642025640A00005B4150503A
:105220005D3A207361766520697220646174612043
:10523000656E76206F6B0A000050084053746172EF
:1052400074204972537475647920636C6B3A2564D9
:105250000A000000945A08105B4150505D3A206EDD
:10526000656564206D6F726520617267730A000066
:1052700000300C40F450081010B599A007F062FE01
:105280009D4807F0DBFF9D4807F0D8FF10BD10B523
:1052900000241EF073FA0CF062FF1EF076FA9848B4
:1052A00090F8E007012878D196480068401C95499D
:1052B00008609548406B9249C1F8DC070846D0F871
:1052C000DC07D1F8D817884207D98D48D0F8DC0719
:1052D0008B49D1F8D817441A08E08948D0F8D80784
:1052E000C0F1FF308649D1F8DC17441844F2506011
:1052F00084422CD98548844229D28148D0F8D807E5
:105300007F49D1F8D0177E4A42F821001046D0F8E4
:10531000D007401C1146C1F8D0070846D0F8DC077A
:10532000D1F8D01742F821001046D0F8D007401C21
:105330001146C1F8D0070846D0F8D00740F2C31193
:10534000884222D10220114681F8E0071DE044F294
:105350005060844219D26A48D0F8D007022814D28B
:1053600068480068052806D16548D0F8DC0764491C
:10537000C1F8E40709E0634800680F2805D16048D8
:10538000D0F8DC075E49C1F8E8075D48D0F8DC07D3
:105390005B49C1F8D80723E0FFE7594890F8E007D8
:1053A000F0B95948406B5649C1F8DC070846D0F8B7
:1053B000DC07D1F8D017524A42F821001046D0F845
:1053C000D007401C1146C1F8D0070846D0F8DC07CA
:1053D000C1F8D807012081F8E0070020494908609A
:1053E0004FF0FF30484908600CF0C7FE10BD10B503
:1053F00000241EF0C3F90CF0B2FE1EF0C6F9002125
:10540000434804F0F8FC01284AD14248D0F8D407B8
:10541000401C4049C1F8D4070846D0F8D40751F8D9
:10542000204054B3084690F8D40700F0010088B13A
:10543000D1F8D00738490A780021FFF7A1FD354897
:10544000D0F8D407334951F820200021304804F027
:10545000C8FD21E02F49D1F8D0072F490A78322121
:10546000FFF78EFD2B48D0F8D4072A4951F82020A9
:105470000021274804F0B5FD0EE02649D1F8D007F9
:1054800025490A780021FFF77BFD0021204804F020
:105490003DFD0E2000F012F800211D4804F0C4FC70
:1054A0000CF06BFE10BD00F01F020121914042097B
:1054B000920002F1E022C2F80011704700F01F02D2
:1054C00001219140154A430942F82310704700F02A
:1054D0001F0201219140124A430942F823107047EC
:1054E0005B4150505D3A204972537475647920498C
:1054F0006E69740A00000000F85008100C51081082
:10550000BC5A08102051081000500840C0655200D5
:1055100000300C40A8620810F450081080E100E050
:1055200080E200E0024610787B2805D1481E105C1E
:105530007D2801D1012070470020FCE72DE9F74FBD
:1055400089461446494600981DF01AFD074648460C
:105550001DF03EFD00F0FF0B07EB0B050FB317F836
:10556000010C22281DD1287822281AD168783A28DF
:1055700017D1A878222814D1EE1CFEA130461DF0C8
:10558000FFFC8246AAEB060000F0FF0842463146C7
:1055900020461DF007FD002004F808000120BDE8AA
:1055A000FE8F0020207000BFF9E72DE9F74F0F466E
:1055B0009046394600981DF0E3FC054638461DF03C
:1055C00007FD00F0FF0B05EB0B04F5B115F8010C1E
:1055D00022281AD12078222817D160783A2814D1AD
:1055E000A078222811D1E61CE2A130461DF0C8FCAB
:1055F0008146A9EB060000F0FF0A524641463046BC
:105600001DF0D0FC0120BDE8FE8F0020FBE770B547
:1056100004460D46294620461DF0E1FC08B901204C
:1056200070BD0020FCE770B505460C4654B1002063
:10563000D1490870234640F22522D049D0A007F076
:1056400081FC08E0DA48007800F0200018B121461B
:10565000D8A007F077FC70BD2DE9F04F85B0074664
:10566000884615461E464FF00109CA46C2480078D2
:1056700010B905B0BDE8F08F04AA0021D548006834
:105680000EF0A9FA9DF8100038B19DF810304FF4D3
:105690000F72D149D1A007F055FC28461DF098FCA7
:1056A0001FFA80FBD6485B462A464146CDE9009A60
:1056B000CDE90206384611F0C1FE044634B1234656
:1056C00040F24222C449CFA007F03CFCC148006828
:1056D0000EF026FB00BFCCE770B505460C4654B172
:1056E0000020A549087023464FF4F172CE49CFA09F
:1056F00007F028FC08E0AE48007800F0200018B160
:105700002146D6A007F01EFC70BD10B5DC4800781D
:10571000012805D1DBA2DCA1DF48FFF746FF04E04A
:10572000DEA2D9A1DC48FFF740FF0023DA4ADC49BA
:10573000DC48FFF791FF10BD10B59D48007800F0E0
:10574000200010B1D8A007F0FDFB0023DE4AD449A9
:10575000D448FFF781FF10BD2DE9F04186B08046A7
:105760000D4617461E4600249148007800F02000A0
:1057700020B132463946D5A007F0E4FB06F001001F
:10578000002876D08A48007800F0200018B1294619
:10579000DDA007F0D7FB39462846FFF7C3FE0446D5
:1057A000012C08D040F22312E049E1A007F0CAFB27
:1057B00006B0BDE8F08101AAE5A12846FFF7BEFECC
:1057C0000446012C73D17A48007800F0200018B10B
:1057D00001A9E3A007F0B6FB01A9E8A0FFF717FFB6
:1057E0000446012C7ED17248007800F0200010B1F0
:1057F000E3A007F0A7FB01AAE6A12846FFF79EFE5B
:105800000446012C4CD16A48007800F0200018B101
:1058100001A9D3A007F096FB01A9E2A0FFF7F7FECC
:105820000446012C3DD16248007800F0200010B100
:10583000DEA007F087FB01AAE3A12846FFF77EFE62
:105840000446012C62D15A48007800F0200018B1BB
:1058500001A9C3A007F076FB01A98AA0FFF7D7FE34
:105860000446012C0CD15248007800F0200020B1F1
:1058700000E0C2E2D6A007F065FBFBF7C0F809E044
:105880004B48007800F0200010B1D7A007F05AFB79
:10589000FBF70BF90023DA4A81498248FFF7DCFE67
:1058A00034E04348007800F0200020B100E09DE2A1
:1058B000D4A007F047FB01AAC3A12846FFF73EFE8C
:1058C0000446012C22D13A48007800F0200018B19B
:1058D00001A9A3A007F036FB01A96AA0FFF797FE74
:1058E000044600E013E0012C08D13148007800F0B4
:1058F000200058B1B6A007F025FB07E02C4800783F
:1059000000F0200010B1B8A007F01CFB50E701A97F
:10591000C3A0FFF77CFE0446012C10D12448007878
:1059200000F0200010B1C2A007F00CFBFFF704FF4D
:105930004FF47A7005F00FFE05F01CFE38E701A960
:10594000C2A0FFF764FE0446012C11D1184800786C
:1059500000F0200010B1C1A007F0F4FA01AA8DA157
:105960002846FFF7EBFD0446012C02D1104883E1E5
:10597000A7E1A5E122000000AA5508108C44021AF4
:105980005B4D5154545F4552525D3A2025733A2580
:10599000642D3E5075626C69736820726573756C16
:1059A00074206661696C65643A2025640A00000011
:1059B000285008105B4D5154545D3A205075626C6C
:1059C00069736820726573756C74206F6B3A20255B
:1059D000640A0000AC550810A044021A5B4D5154F3
:1059E000545F4552525D3A2025733A25642D3E7727
:1059F0006169742073656D206572723D25640A00CB
:105A00002756001A5B4D5154545F4552525D3A205F
:105A100025733A25642D3E5075626C697368206564
:105A200072723A2025640A006144021A5B4D515497
:105A3000545F4552525D3A2025733A25642D3E53FA
:105A4000756273637269626520726573756C742028
:105A50006661696C65643A2025640A005B4D5154A7
:105A6000545D3A2053756273637269626520726592
:105A700073756C74206F6B3A2025640A0000000077
:105A8000200008106F6E0000726573756C745F7390
:105A900074617465000000002D5408106F660000EA
:105AA0002C44021A806A08105B4D5154545D3A2010
:105AB0004D7174742073656E64207265626F6F74CB
:105AC0002061636B0A000000AA5308105B4D51541B
:105AD000545D3A20496E636F6D696E672070756220
:105AE0006C697368207061796C6F61642077697488
:105AF00068206C656E6774682025642C20666C6174
:105B000067732025750A00005B4D5154545D3A209F
:105B10006D7174745F696E636F6D696E675F6461E8
:105B200074615F63623A2025730A00004B44021AD5
:105B30005B4D5154545F4552525D3A2025733A25CE
:105B4000642D3E57726F6E67206A736F6E210A0074
:105B50006D6573736167655F74797065000000003F
:105B60005B4D5154545D3A2066696E6420676574DC
:105B70002076616C3A25730A0000000072706300A1
:105B80005B4D5154545D3A20736574207270632EDE
:105B90002E2E0A00636F6D706F6E656E745F6964A0
:105BA00000000000636D7069643100005B4D51546A
:105BB000545D3A207365742072706320636D706960
:105BC00064312E2E2E0A0000646174610000000012
:105BD0005B4D5154545D3A2073657420727063209C
:105BE0006F6E2E2E2E0A00005B4D5154545D3A20EC
:105BF00073657420727063206F66662E2E2E0A0005
:105C0000F05308105B4D5154545D3A207365742075
:105C100072706320636D706964322E2E2E0A00004C
:105C20006465766963655265626F6F740000000099
:105C30005B4D5154545D3A206465766963655265E5
:105C4000626F6F742E2E2E0A0000000073696E675B
:105C50006C654C6976655374617465005B4D515495
:105C6000545D3A2073696E676C654C697665537450
:105C70006174652E2E2E0A00007800F0200020B1FD
:105C800001A9AFF2241007F05DF901A9AFF2EC0011
:105C9000FFF7BDFC0446012C0AD1DC48007800F077
:105CA000200010B1DAA007F04DF9FFF72EFD07E054
:105CB000D648007800F0200010B1DFA007F042F9CC
:105CC00076E501A9E6A0FFF7A2FC0446012C21D14C
:105CD000CE48007800F0200010B1E5A007F032F9BE
:105CE000EB480078012807D1AFF26822AFF26821B3
:105CF000E848FFF75AFC06E0AFF26022AFF27821E5
:105D0000E448FFF752FC0023E24AE349E348FFF787
:105D1000A3FC4DE501A9E2A0FFF779FC0446012CA4
:105D200027D1BA48007800F0200010B1DFA007F0BA
:105D300009F90023E34AD849D848FFF78DFCD44835
:105D40000078012807D1AFF2C422AFF2C421D148B4
:105D5000FFF72BFC06E0AFF2BC22AFF2D421CD4816
:105D6000FFF723FC0023CB4ACB49CC48FFF774FC58
:105D70001EE501A9D4A0FFF74AFC0446012C49D135
:105D8000A248007800F0200010B1D3A007F0DAF8A4
:105D900001AAD8A12846FFF7D1FB0446012C24D143
:105DA0009A48007800F0200020B101A9AFF25020FD
:105DB00007F0C8F801A9D1A0FFF729FC0446012C7F
:105DC0000BD19248007800F0200010B1CDA007F070
:105DD000B9F80120FCF7C8F907E08C48007800F01A
:105DE000200010B1CEA007F0ADF8E1E44FF4E4726A
