:020000041A00E0
:10000000F8FF00204109001A2509001A2909001AE1
:100010002D09001A3109001A3509001A00000000E4
:100020000000000000000000000000003909001A74
:100030003D09001A000000006D37021A1346011A2C
:100040002109001A2109001A2109001A2109001AA0
:100050002109001AB57C001A2109001A2109001A89
:100060002109001A2109001A2109001A2109001A80
:100070002109001A4752001AA753001A2109001A31
:100080002109001A2109001A3FB2001A77B2001A9A
:100090002109001A2109001A75BC001A95BD001A21
:1000A0000DA9001A61AB001A51AC001A41AD001A3B
:1000B0002109001A2109001A2109001A2109001A30
:1000C0002109001A2109001A2109001A2109001A20
:1000D0002109001A2109001A2109001A2109001A10
:1000E0002109001A2109001A2109001A2109001A00
:10040000DFF80CD023F038F9004800470507001A40
:10041000F8FF002010B50446C4EBC4020E4B1A448A
:100420005178C4EBC402985C09F060FF10BD70B550
:1004300004460D46C4EBC402074B1A445178C4EB82
:10044000C402985C2A4609F0E4FF70BD10B5024969
:100450000B200AF099F810BDEE41021A2DE9F04781
:1004600007468846914612F014FC06463146BCA069
:100470000CF010FDBFA00CF00DFDC64D002403E0F4
:10048000285D00B103E0641CB4F57A7FF8D300BFA7
:10049000C4F57A7123464FF47A72BFA00CF0FAFCCF
:1004A000C34D002403E0285D00B104E0641C40F665
:1004B000B8308442F7D300BF40F6B830011B234662
:1004C0000246BCA00CF0E6FCC04D002403E0285D11
:1004D00000B104E0641C41F294108442F7D300BFE1
:1004E00041F29410011B23460246B9A00CF0D2FC45
:1004F000BC4D002403E0285D00B103E0641CB4F5AA
:100500007A6FF8D300BFC4F57A6123464FF47A625C
:10051000B5A00CF0BFFCBA4D002403E0285D00B18B
:1005200004E0641C40F6B8308442F7D300BF40F6C4
:10053000B830011B23460246B2A00CF0ABFC0020F1
:10054000BDE8F08770B5044600262146B3A00CF044
:10055000A1FC002C0ADB002102200AF067FD054601
:10056000022D03D1B8A00CF095FC01260EE0641E0C
:100570004FF47A7102200AF059FD0546022D01D18F
:10058000012600242146B1A00CF084FC002C01DDE2
:10059000002EECD0AFA00CF07DFC304670BD30B525
:1005A000CFB0AD484568AD480068AD49884201D13B
:1005B000012000E0002040B10020A8490860A9A067
:1005C0000CF068FC01204FB030BD01AA41A9012008
:1005D00000F0ACFD0446002C06DA22469E49A9A094
:1005E0000CF058FC0220EEE79D489C49086000BFD3
:1005F00005209A490F3908700220491C0870002014
:10060000491C087000BFA648007818B141F2883034
:100610000AF0CAFF2946A3A0449A0CF03BFC8F487D
:10062000001F0560A8488D49083908600A200AF0B3
:100630003AFF00BFBFF34F8FA448006800F4E060AA
:10064000A3490843001DA1490860BFF34F8F00BFB5
:1006500000BFFEE79FA00CF01DFC00F07BFC4FF4F8
:100660007A714C4822F04BFC0D23A04A0021A0488F
:1006700012F009F84FF47A615A4822F040FC19232D
:100680009C4A00219C4811F0FEFF41F294114F4812
:1006900022F035FC1423994A0021994811F0F3FF08
:1006A00040F6B831564822F02AFC1A23954A002118
:1006B000954811F0E8FF95480CF068FD94A00CF007
:1006C000E9FB03E00CF083FF04F061F9FAE770B591
:1006D0000546904800684FF47A71B0FBF1F420466B
:1006E00013F082FF00F0A2FB0120FFF72BFF10B1F7
:1006F00000BFFFF7AFFF01F050F9FFF750FF00B167
:10070000F7E770BD10B55548083800686E49884253
:1007100001D1012000E0002030B100204F4908390C
:100720000860081D0468A04709F08EFA06F02FFB48
:10073000112006F011FD7749086011F0A0FC40F689
:10074000B8311B4822F0DBFB2823734A0021AFF2AB
:10075000810011F098FF11F0EDFC002010BD0000A9
:1007600052756E6E696E672074696D653A202564F6
:100770006D730A005461736B20737461636B3A0D7F
:1007800009097573656409746F74616C0966726533
:10079000650A00000001081020207C2D4272644D83
:1007A0006F6E0D090925640925640925640A000096
:1007B000E804081020207C2D4D61696E0D09092583
:1007C000640925640925640A00000000A0100810CF
:1007D00020207C2D4E65740D0909256409256409C6
:1007E00025640A003422081020207C2D5466747081
:1007F0000D090925640925640925640A0000000023
:10080000D431081020207C2D526B3130300D090975
:1008100025640925640925640A0000000A507265F0
:100820007373204354524C2B4220746F20696E74B2
:10083000657272757074206175746F626F6F743A4F
:1008400020253032640000000808300008082530F8
:10085000326400000A0A00000000041AFC3600207E
:10086000172005B00A466F72636520746F20626FAF
:100870006F746D6F646520666F72206261642061C1
:1008800070700A004E6F7420666F756E6420617020
:100890007020617420307825785B25645D0A000043
:1008A000215008105374617274696E672061707012
:1008B0002061742030782578205B6C656E3D25645E
:1008C0005D2E2E2E0A0000001620A5A50CED00E0DE
:1008D0000000FA050A456E74657220424F4F542D90
:1008E0004D4F44452E2E2E0A00000000E40408104F
:1008F000550B001AD03108106F40001A3022081032
:10090000EB3D001A883D0810210E001A0050081017
:100910003D3E0000380008109C1008100120704770
:1009200000BFFEE700BFFEE700BFFEE700BFFEE737
:1009300000BFFEE700BFFEE700BFFEE700BFFEE727
:1009400010B5FFF7EBFFFFF75BFD10BD7047704779
:1009500070477047704770477047704770B50446DE
:100960000D464FF47A700AF09EFD4FF0FF3070BDD7
:100970000246002070470EB5E0A00CF08BFAE0A014
:100980000CF088FAE9A00CF085FADDA00CF082FAF0
:10099000ECA0002104220B46CDE9002102900222A6
:1009A0000521EBA00CF076FAF2A2F5A1F7A00CF06D
:1009B00071FA47F21721FBA00CF06CFAFE480168AF
:1009C000FEA00CF067FA0EBD2DE9F04107460D467A
:1009D0001646022D04DA0AF075FD0020BDE8F0810C
:1009E00000221146706822F010FB04461CB1002062
:1009F000F749087001E00AF065FD0020EEE710B548
:100A000000210420FFF713FD01210220FFF70FFD55
:100A1000F04949784FF47A7201FB02F00AF043FD85
:100A2000EC488078012806D1EA4890F84320C11CA0
:100A3000002009F0DDFEE74890F84600012807D1C4
:100A4000E44890F8872000F14701012009F0D0FE2A
:100A5000E04890F88A00012807D1DE4890F8CB20C2
:100A600000F18B01022009F0C3FEDA4890F8CE00B5
:100A7000012805D1D74991F8CF00002104F046FBA9
:100A80004FF4FA700AF00FFDD24890F8D100012817
:100A900005D1D04991F8D200012104F037FB0120A3
:100AA000CD49087010BD10B501210420FFF7BFFC2F
:100AB00000210220FFF7BBFCC64991F8EF104FF46C
:100AC0007A7201FB02F00AF0EEFCC24890F8F000E6
:100AD000012807D1BF4890F8312100F1F101002031
:100AE00009F086FEBB4890F83401012807D1B948C7
:100AF00090F8752100F23511012009F079FEB54812
:100B000090F87801012807D1B24890F8B92100F295
:100B10007911022009F06CFEAE4890F8BC01012862
:100B200005D1AC4991F8BD01002104F0EFFA4FF472
:100B3000FA700AF0B8FCA74890F8BF01012805D167
:100B4000A44991F8C001012104F0E0FA0020A24973
:100B5000087010BD86B012F09CF806464FF0FF38C2
:100B60004FF000090024A24659E19948007808B1E5
:100B70000AF05AFD12F08DF80546B54201D3AF1BBD
:100B800002E0A8EB06004719642F0AD32E46642022
:100B9000B7FBF0F09149096808449049086004F0F7
:100BA0006EF98F4800780A2819DD00208C490870FA
:100BB0008948007808B9012000E0002086490870C3
:100BC00008460078012802D1FFF719FF01E0FFF77E
:100BD0006AFF00BF0720FFF71DFC0028FAD007209E
:100BE000FFF718FC8146B9F1000F05D17C48007869
:100BF000401C7B49087002E00020794908701821E8
:100C0000684622F07CF90A231522694603200AF07F
:100C100049FA8246BAF1000F44D19DF80700302806
:100C200041D100243CE06B4890F8D400012835D134
:100C300004EB84016748D530405C01282ED19DF833
:100C4000081004EB84026348D53010444078814298
:100C500024D19DF8091004EB84025E48D53010447D
:100C6000807881421AD19DF80A1004EB8402594819
:100C7000D5301044C078814210D19DF80B1004EBA0
:100C800084025448D53010440079814206D10120B5
:100C9000514908700B205249087003E0601CC4B22F
:100CA000052CC0DBBBE09DF80700102824D10024F0
:100CB000B1E0484890F8D40001281ED104EB84012B
:100CC0004448D530405C012817D19DF8081004EB4A
:100CD00084024048D5301044407881420DD19DF8BF
:100CE000091004EB84023B48D530104480788142DF
:100CF00003D19DF80A1075E091E08AE00A0A0A0023
:100D00002A2A2A2A2A2A2A2A2A2A2A2A2A2A2A2A43
:100D10002A2A2A2A2A2A2A2A2A2A2A2A2A2A2A2A33
:100D20002A2A2A2A2A2A2A2A0A00000009202052CE
:100D30004B31303020626F61726420424F4F540A51
:100D4000000000003230313831323036000000000F
:100D50002020417070202076657273696F6E3A2092
:100D60005625642E25642E25642E25642E25642E9A
:100D700025730A0031363A33353A3031000000002D
:100D80004465632020362032303138002020436F04
:100D90006D70696C652074696D653A202573202536
:100DA000730A0A0075432F4F532D49492076657207
:100DB0003A2025640A000000380008104C504331E6
:100DC00038333720636F72653A2025640A000000CB
:100DD00021500810EC070010205008101C5008107B
:100DE0003850081004EB84028A481044C0788142CD
:100DF0000FD19DF80B1004EB840286481044007953
:100E0000814206D10020844908700B208349087074
:100E100004E0601CC4B2052CFFF64BAF00BFA4E693
:100E200003E003F0F2FE05F0BDFAFAE710B5FFF7B4
:100E30000DFB4FF490717A4822F061F80320784955
:100E400008604FF4E1304860764888607648086171
:100E50004020C8604861002009F0EAFF0320704983
:100E600088644FF4E1316E48C1647049016570498E
:100E7000816540214165C16500F14801012009F00B
:100E8000D7FF03206649C1F890004FF4E131644870
:100E9000C0F894106749C0F898106749C0F8A010CE
:100EA0004021C0F89C10C0F8A41000F1900102206D
:100EB00009F0BEFF03205A49C1F8D8004FF4614140
:100EC0005748C0F8DC105D49C0F8E0105C49C0F834
:100ED000E8104021C0F8E410C0F8EC1000F1D8018F
:100EE000032009F0A5FF574800210160416081609F
:100EF00002205449087248725348086053484860B9
:100F000008460CF028FBFFF736FD0AF00FFA6021C7
:100F10004F4821F0F4FF00204D49087040F60800CA
:100F200048604C494A488160002101610146002027
:100F30000AF0F2FD1C21484821F0E1FF002046495B
:100F40000870487043480861002014F022F900F04E
:100F500019FD10BD70B5002514200AF04EFA0121CC
:100F60000020FFF764FA00210320FFF760FA3B48F6
:100F70000CF00CF93A48007818B141F288300AF0C8
:100F800013FB2021374821F0BAFF002035490870B3
:100F900035484860002133488160014600200AF04E
:100FA000FDF8324800210160416000202F4908709F
:100FB00050204870002014F019FA20212C4821F00C
:100FC0009EFF2C482A4908602B4848600020C860D2
:100FD00008614FF48070486108460FF03EFE0546F8
:100FE000002D04DA294625A00BF054FF08E00FF08D
:100FF00033FD04462BA0211D0EC90BF04BFF00BF93
:1010000001F0D1FC03F0DCFD04F012F905F063F906
:1010100070BD0000C10800102050081038500810A2
:10102000380500103803001078030010B8030010D2
:10103000F80300103804001078040010B804001001
:10104000F8040010140700102DB0001A43A7001A6E
:1010500078060010808D5B00F80600102450081000
:101060002150081058060010801A0600145008106D
:10107000D8060010A152011AED52011A5B415050DE
:101080005D3A2070726F6475637420696E666F20BC
:101090006E6F7420666F756E642C2072746E3D25C1
:1010A000640A00005B4150505D3A2070726F6475B5
:1010B000637420696E666F3A207069643D307825EC
:1010C0007820687769643D30782578206877766580
:1010D000723D25640A0000002DE9F04180460C466F
:1010E0000026F648206001206060002060632746EB
:1010F000002504E0795D606B084460636D1C342D4D
:10110000F8D3062140460EF063FC0646002E02DAB4
:101110003046BDE8F0813822394640460EF0D8FD11
:10112000002140460EF013FF3046F2E72DE9F74F5D
:1011300084B00C4691460020029003943821039815
:1011400021F0DDFE38220021DDE903300DF036FF0D
:101150008346BBF1000F04DA4FF0FF3007B0BDE863
:10116000F08FD6492068884202D06FF00100F5E781
:10117000A068072802D36FF00200EFE700260025E1
:1011800003E00398405D06446D1C342DF9D3606B79
:10119000B0420AD0606B3346C322C9490090C9A04F
:1011A0000BF078FE6FF00300D8E74FF0000AE76815
:1011B00028E0B7F5807F02D94FF4807000E0384610
:1011C00080464B4642465146A0680DF0F7FE8346E6
:1011D000BBF1000F08DA5B46D222B949C7A00BF079
:1011E00059FE6FF00400B9E7002506E019F8051074
:1011F00002980844C0B202906D1C4545F6D3C24423
:10120000A7EB0807002FD4D121690298814209D0A9
:1012100020690090E122AA49C1A0029B0BF03AFE8E
:10122000B81F9BE7002099E72DE9F04106460D46DF
:1012300006B11DB94FF0FF30BDE8F081002426E073
:1012400004EB4400C44901EB8000007A00F0040084
:1012500048B104EB44000A4652F82010304621F011
:1012600088FE98B915E004EB4401BB4A52F821000E
:1012700021F078FE074604EB4400B74A52F82010EC
:101280003A46304621F0A8FE00B902E0641C032C67
:10129000D6D300BF032C02D36FF00100CCE704EBE0
:1012A0004400AD4901EB8000406828602046C3E758
:1012B0002DE9F04705460E46174600244FF0380941
:1012C0004FF00408022E01D1772000E07220024680
:1012D0002946A2A00BF0DEFD22F01AFA1FB9002069
:1012E000A549086002E0A44938680860A34800687E
:1012F0004FF6FF7188420BD022F011FA40F22D1206
:101300009F49A0A00BF0C6FD6FF00900BDE8F08773
:101310009A4805600020A149087022F000FA012EC9
:1013200001D1012000E0022040EA0808022D35D05A
:1013300003DC3DB1012D3AD116E0652D1BD0662DA1
:1013400035D122E04A46002102200DF01FFF04465D
:10135000002C00DA38E0414604200EF039FB044648
:10136000002C00DA30E02CE00FF0BFFF0446002C28
:1013700000DA29E025E011F08CFC894908600020A2
:1013800088490860884908701BE0414606200EF035
:101390001FFB0446002C00DA16E012E03946304606
:1013A00001F0B8FD0446002C00DA0DE009E02B4600
:1013B00040F25D1272497DA00BF06CFD6FF01304DA
:1013C00002E000BF2046A1E74FF6FF706B490860BE
:1013D00020469BE72DE9FC4106460D46174601A92C
:1013E0003046FFF721FF0446002C02DA2046BDE814
:1013F000FC81012D0AD104EB4400574901EB800028
:10140000007A00F0010008B9281FF0E7022D0AD188
:1014100004EB4400504901EB8000007A00F0020028
:1014200008B9A81FE3E70198234632466A490090AD
:101430006AA00BF02FFD3A4629460198FFF738FFC6
:10144000D5E7F0B591B005460024002002904B4846
:10145000016869A00BF01EFD382103A821F04FFDA3
:1014600046480068022824D003DC38B1012821D185
:10147000EAE065281FD06628F9D10FE102A904200F
:101480000EF065FD0446002C00DC21E143480078A5
:1014900000B11DE15E4800799DF8081088420BD02C
:1014A0005B48007900909DF8083040F2A31259493A
:1014B000B2E0FCE003E1CCE0B4E000001620A55A65
:1014C0006042021A5B4150505F4552525D3A2025FE
:1014D000733A25642D3E696E666F20636865636BA1
:1014E0002073756D206572723A2063616C3D2578BA
:1014F00020666C61673D2578210A00005B415050F1
:101500005F4552525D3A2025733A25642D3E66614F
:10151000696C6564212072746E3D25640A000000C8
:101520005B4150505F4552525D3A2025733A256425
:101530002D3E6461746120636865636B2073756D13
:10154000206572723A2063616C3D257820666C617B
:10155000673D2578210A00003C42021A5B41505049
:101560005D3A206F70656E2066775B25645D20664E
:101570006F722025630A0000FC010010F8010010C2
:101580006A42021A5B4150505F4552525D3A202533
:10159000733A25642D3E627573790A0009020010C2
:1015A0000002001004020010080200105B415050BD
:1015B0005F4552525D3A2025733A25642D3E6E6F89
:1015C0007420737570706F72742064774F626A5BF9
:1015D00025755D0A000000007A42021A5B415050F6
:1015E0005D3A2025733A20257320693D2564206FDC
:1015F000626A3D25640A00005B4150505D3A2063F9
:101600006C6F73652066775B25645D0A00000000DF
:10161000245708108742021AEBA00BF03BFC4FF056
:10162000FF3455E0F7A00BF035FC0420059006943C
:101630009DF80800079003A90220FFF74DFD04461E
:10164000002C00DA44E03DE002A80FF00AFF044657
:1016500038E011F01EFBF2490968401AF0490860B1
:101660000846006868B1EF4800684FF47A71A0FB43
:1016700001600146EA4802680023304621F0D4FBAD
:1016800004462346E6480268E6480168E6A00BF0F7
:1016900001FC0024EF480078029013E002A9062024
:1016A0000EF055FC0446002C00DC11E00AE002A814
:1016B00001F0BEFC0446002C00DA09E002E06FF005
:1016C000630400BF00BF15B19DF80800287000BF7B
:1016D0004FF6FF70E0490860204611B0F0BD10B52C
:1016E0000120DE4908700020FFF7ABFE10BD70B589
:1016F00005460C460026D848006802283CD003DC8A
:1017000038B101283ED119E065281DD0662839D1AD
:101710002BE0D34890F8450048B90120D04981F822
:10172000450000262146CFA00BF0B4FB05E0224681
:10173000294604200EF0CCFA064626E0214628462B
:101740000FF002FE064620E0B64800682044B54986
:101750000860002006E0295CBE4A12781144BD4AA8
:101760001170401CA042F6D30FE022462946062005
:101770000EF0AEFA064608E02146284601F0F7FBD7
:10178000064602E04FF0FF3070BD00BF002E02DAC7
:101790000120B24908703046F6E7F7B582B0074637
:1017A0001646002403AA02213846FFF781FD0446AD
:1017B000002C02DA204605B0F0BDAFF2CD000EF0ED
:1017C00017FF30460EF019FF0546002D07DC2346B3
:1017D00040F23322A749A8A000940BF05BFB002045
:1017E000FFF72FFE0446002C08DA234640F2392288
:1017F000A049AEA00BF04EFB2046DCE72846DAE716
:1018000070B504460D4648222146954821F050FB0C
:1018100093480168B2A00BF03DFB91480179B5A057
:101820000BF038FB8E49491DB8A00BF033FB4FF08D
:10183000FF3070BDF7B506461746002576B948213A
:10184000874821F05CFBB649AFF24B024868394645
:1018500014F082F94FF4FA6009F025FE01AA022182
:101860003046FFF725FD0546002D01DA2846FEBD6E
:10187000AB49AFF285124868394614F06DF9044659
:10188000002C06DC23464FF41A72A649A6A00BF0E2
:1018900001FB0020FFF7D5FD0546002D08DA2B4699
:1018A00040F26E229F4981A00BF0F4FA2846DEE751
:1018B0002046DCE72DE9F04781460F461646032F08
:1018C00020DA002418E004EB4400A44901EB800076
:1018D000007A00F0020000B90DE004EB44009F4BD9
:1018E00053F8202004EB440003EB800041689CA0E7
:1018F0000BF0D0FA00BF641C032CE4D34FF0FF3090
:10190000BDE8F08700221146706821F07EFB044696
:1019100000221146B06821F078FB8046032F14DDC9
:10192000214695A00BF0B6FA41462046F268FFF733
:1019300081FF0546002D1EDA2B4640F29922994977
:1019400099A00BF0A7FA2846DAE702222146A1A0C7
:101950000BF0A0FA022241462046FFF71EFF054683
:10196000002D08DA2B464FF429728E498EA00BF019
:1019700091FA2846C4E72A462946A0A00BF08AFA25
:101980000020BDE710B50AF011FBA64907200EF0B4
:1019900004F8A5480BF0FAFB10BD2DE9F041D0B0DA
:1019A00001AA42A90220FFF7C1FB0446002C03DA7A
:1019B000204650B0BDE8F0814498042803D04FF48D
:1019C00039729A4934E13AE15B4150505F455252D5
:1019D0005D3A2025733A25642D3E436865636B5359
:1019E000756D206572726F722046696C6553756DF6
:1019F0003A30782578204865616453756D3A3078BF
:101A000025780A005B4150505D3A2075706461741E
:101A100065206E65772061707020696E666F0A00C0
:101A200000020010040200105B4150505D3A207229
:101A300065637665642025752062797465732C2052
:101A4000757365642025756D732025754270730A62
:101A50000000000008020010F80100100902001048
:101A600024570810536B69702073697A653A2564AE
:101A70000A0000009542021A5B4150505F455252E5
:101A80005D3A2025733A25642D3E4B65726D69746D
:101A900052656376206661696C6564212072746E9C
:101AA0003D25645B25785D0A000000005B415050D5
:101AB0005F4552525D3A2025733A25642D3E4677A4
:101AC000557064617465436C6F7365206661696C01
:101AD00065642C206E52746E3D2564210A0000005E
:101AE0005B4150505D3A204D616769633A3078251B
:101AF000780A00005B4150505D3A2046696C6543AE
:101B000072633A307825780A000000005B4150503B
:101B10005D3A2056657273696F6E3A25730A00004C
:101B200020070010A442021A5B4150505F455252F8
:101B30005D3A2025733A25642D3E546674705265D3
:101B4000637646696C65206661696C65642C206EFD
:101B500052746E3D2564210A000000003C42021AC6
:101B60005B4150505D3A20096F626A5B2533645DCA
:101B70003A2025730A0000005B4150505D3A207501
:101B800070646174652066775B25645D2066726FA2
:101B90006D2074667470207365727665722E2E2EB9
:101BA0000A000000B142021A5B4150505F45525298
:101BB0005D3A2025733A25642D3E6661696C656443
:101BC000207265637620646174612C2072746E3DAE
:101BD00025640A005B4150505D3A20757064617461
:101BE000652066775B25645D2066726F6D20756188
:101BF000727425642E2E2E0A000000005B415050A6
:101C00005D3A2072656365697665642073697A65FB
:101C10002025642042797465735B307825303878EC
:101C20005D0A0000000000100C020010BF42021A02
:101C3000A1A0449B0BF02EF96FF00100B9E6459D81
:101C40002946A6A00BF026F93822002101200DF02C
:101C50009DFA0446002C02DA6FF00200A9E6062184
:101C600003200DF0B5FE0446002C0ADA234640F2AC
:101C7000F522A549AFF27C700BF00CF96FF0030070
:101C800097E6002701AE2BE0B5F5807F02D94FF42F
:101C9000807000E02846804633464246394604209C
:101CA0000DF08CF90446002C07DA234640F202328C
:101CB000954996A00BF0EEF814E042463146032019
:101CC0000EF006F80446002C07DA234640F20932EB
:101CD0008D4999A00BF0DEF804E04744A5EB080518
:101CE000002DD1D100BF002C06DA002103200EF018
:101CF0002EF96FF004005CE641A903200EF027F9ED
:101D000004460320449045949DF80401469042A95E
:101D10000120FFF7E1F90446002C02DA6FF005001C
:101D200047E63822002102200DF030FA0446002C4C
:101D300002DA6FF006003CE68AA00BF0ABF8002058
:101D400037E62DE9FF4FD3B08046154606200490B4
:101D50000020039005AA45A95498FFF7E7F9044627
:101D6000002C04DA4FF0FF3057B0BDE8F08F4798F1
:101D7000A8420CD04798434640F24B328149CDE906
:101D8000000581A00BF086F86FF00100ECE700BFC2
:101D9000489E3246414686A0039B0BF07BF810F02C
:101DA00078FF0746049956980DF012FE0446002C61
:101DB0000ADA234640F25A327249AFF6C0000BF0FD
:101DC00069F86FF00300CFE74FF0000A0DF1140936
:101DD00031E0B6F5807F02D94FF4807000E03046E4
:101DE00083464B465A46514628460DF0E7F80446CE
:101DF000002C07DA234640F26732624943A00BF019
:101E000049F81AE05A46494656980DF061FF0446D3
:101E1000002C07DA234640F26E325A4970A00BF0CC
:101E200039F80AE0DA44A6EB0B06CAF3062010B92B
:101E300076A00BF02FF8002ECBD100BF31A00BF015
:101E400029F8002C06DA002156980EF080F86FF081
:101E5000040427E0002156980EF079F80446002C7F
:101E600009DA234640F28632464969A00BF012F89F
:101E70006FF0050416E0609850B1382200215498A4
:101E80000DF084F90446002C02DA6FF006006BE7CF
:101E900010F0FFFEC71B3A46414667A00AF0FAFF62
:101EA000002061E70398401CC0B20390032800DAC9
:101EB0006EE7204658E700005B4150505F455252A4
:101EC0005D3A2025733A25642D3E61707020617261
:101ED00065615F257520657272210A005B41505073
:101EE0005D3A20666F756E64206E6577206C706356
:101EF000206170705B25755D2C2073796E63696E4F
:101F0000672E2E2E0A000000BF42021A5B4150507D
:101F10005F4552525D3A2025733A25642D3E726525
:101F200061642064617461206661696C656421206C
:101F300072746E3D25640A005B4150505F455252F9
:101F40005D3A2025733A25642D3E777274206170C6
:101F500070206661696C6564212072746E3D256431
:101F60000A0000005B4150505D3A2070726F67724A
:101F7000616D206C70632061707020646F6E650A03
:101F800000000000CE42021A5B4150505F455252A1
:101F90005D3A2025733A25642D3E2573206677200F
:101FA000617265615F257520213D2025750A00005D
:101FB0005B4150505D3A20666F756E64206E6577A8
:101FC0002025732066775B25755D2C206E6F256458
:101FD0002073796E63696E672E2E2E0A0000000052
:101FE0005B4150505F4552525D3A2025733A25645B
:101FF0002D3E777274206677206661696C65642176
:102000002072746E3D25640A000000002E0000005E
:102010005B4150505F4552525D3A2025733A25642A
:102020002D3E636C6F7365206661696C6564212069
:1020300072746E3D25640A005B4150505D3A207019
:10204000726F6772616D20257320667720646F6EF2
:10205000652C20757365642025646D730A0A000081
:10206000FEB505460E461746BEA0002104220B46CB
:10207000CDE90021029002220521BDA00AF00AFF4D
:10208000C448017DC4A00AF005FFC24CE07800906E
:10209000A37862782178C6A00AF0FCFECC4C617966
:1020A0002079E278CDE900200291A3786278217846
:1020B000C8A00AF0EFFEB74C1034E0780090A37887
:1020C00062782178CFA00AF0E5FE241FE078009026
:1020D000A37862782178D3A00AF0DCFE083CE0788F
:1020E0000090A37862782178D6A00AF0D3FE241D50
:1020F000E0780090A37862782178DAA00AF0CAFE2E
:10210000A448C18ADFA00AF0C5FE04F11001E3A0D3
:102110000AF0C0FE04F14001E6A00AF0BBFE9D48B3
:1021200090F88810E9A00AF0B5FE9A4890F8891056
:10213000ECA00AF0AFFE974890F88A10EFA00AF0E2
:10214000A9FE0020FEBD70B50025002404E0204655
:102150000FF0C9FB0543641C032CF8D3284670BD5F
:1021600070B5044600258B4880F88A40CC22014691
:1021700000200FF041FB0546002D07DA2B464FF4F7
:10218000F772E449E4A00AF085FE02E0EDA00AF04F
:1021900081FE002070BD70B5044600257D4880F8A2
:1021A0008940CC22014600200FF026FB0546002D79
:1021B00007DA2B4640F2D512E849E9A00AF06AFE98
:1021C00002E0F2A00AF066FE002070BD70B5044681
:1021D0000025704880F88840CC22014600200FF08E
:1021E0000BFB0546002D07DA2B4640F20722ED498E
:1021F000EDA00AF04FFE02E0F7A00AF04BFE00202F
:1022000070BD70B504460025402221466148483023
:1022100020F092FECC225F4900200FF0EDFA054637
:10222000002D07DA2B464FF4DE72F249F2A00AF0D5
:1022300031FE02E0FAA00AF02DFE002070BD2DE96B
:10224000F04186B080460D46144600260027022D38
:1022500003DA701E06B0BDE8F081F6A1606820F0D8
:1022600088FE00284DD1072D01DA401EF2E7A06854
:102270001FF0B9FB0090E0681FF0B5FB04902069E7
:102280001FF0B1FB039060691FF0ADFB0190A069E6
:102290001FF0A9FB029000221146E06920F0B5FE74
:1022A00080B2ADF81600009878B100208DF81400C7
:1022B000684601F0CEFE0646002E09DA3146DEA061
:1022C0000AF0E8FD4FF0FF30C4E701208DF814005C
:1022D000182269462F4820F0EBFDDEA00AF0DAFD57
:1022E000CC222C4900200FF087FA0646002E04DA93
:1022F0003146DEA00AF0CEFD02E0E4A00AF0CAFDFD
:1023000014E3E8A1606820F034FE48B9022D02DA37
:102310004FF0FF309EE7E4A0FFF773FF064605E3AA
:10232000EAA1606820F025FE78B9032D02DA4FF0AB
:10233000FF308FE700221146A06820F066FE0746B6
:10234000F8B2FFF743FF0646F0E2E2A1606820F032
:1023500010FE20B9032D03DA4FF0FF307AE7CAE10F
:10236000BEE100003230313831323036000000003A
:102370005B4150505D3A2076657273696F6E203A0A
:102380002025642E25642E25642E25642E25642E9A
:1023900025730A00200700105B4150505D3A20640D
:1023A00068637020656E203A2025640A00000000F2
:1023B0005B4150505D3A2069706164647220203A3C
:1023C0002025642E25642E25642E25640A00000035
:1023D000BC5008105B4150505D3A206D61636164F0
:1023E0006472203A20253032783A253032783A2506
:1023F0003032783A253032783A253032783A253002
:1024000032780A005B4150505D3A206E65746D6110
:10241000736B203A2025642E25642E25642E2564B6
:102420000A0000005B4150505D3A20676174657797
:102430006179203A2025642E25642E25642E25649A
:102440000A0000005B4150505D3A2073657276656A
:102450007269703A2025642E25642E25642E256429
:102460000A0000005B4150505D3A206D7174742089
:102470006970203A2025642E25642E25642E25645B
:102480000A0000005B4150505D3A204D7174747039
:102490006F72743A2025640A000000005B415050BE
:1024A0005D3A20616C6961732020203A2025730A0F
:1024B000000000005B4150505D3A2070776420209E
:1024C0002020203A205B25735D0A00005B415050BC
:1024D0005D3A20636F6E73666C61673A205B2564BA
:1024E0005D0A00005B4150505D3A20696E69746678
:1024F0006C61673A205B25645D0A00005B415050C7
:102500005D3A206B6973666C6167203A205B2564D5
:102510005D0A00000043021A5B4150505F45525271
:102520005D3A2025733A25642D3E736574204B690E
:1025300073466C6167206661696C65642025640A76
:10254000000000005B4150505D3A20736574204BE1
:102550006973466C6167206F6B0A0000F142021AD2
:102560005B4150505F4552525D3A2025733A2564D5
:102570002D3E73657420496E6974466C61672066F0
:1025800061696C65642025640A0000005B4150505D
:102590005D3A2073657420496E6974466C616720EA
:1025A0006F6B0A000E43021A5B4150505F45525256
:1025B0005D3A2025733A25642D3E73657420636F60
:1025C0006E736F6C6520666C6167206661696C650F
:1025D000642025640A0000005B4150505D3A20737E
:1025E000657420636F6E736F6C6520666C61672025
:1025F0006F6B0A00E742021A5B4150505F4552522E
:102600005D3A2025733A25642D3E736574207077FA
:1026100064206661696C65642025640A000000001E
:102620005B4150505D3A2073657420707764206F71
:102630006B0A0000657468005B4150505D3A20737E
:102640006574206970206661696C65642025640A80
:10265000000000005B4150505D3A207365742065B6
:102660007468206970206F6B0A0000005B41505055
:102670005D3A20736176652065746820656E76200A
:102680006661696C65642025640A00005B415050F6
:102690005D3A20736176652065746820656E7620EA
:1026A0006F6B0A00707764006531383866356533C2
:1026B0003762616166383731313033636438633291
:1026C000363234346164313700000000636F6E735A
:1026D0006F6C6500696E6974666C6167000000006C
:1026E00000221146A06820F090FC0746F8B2FFF7E0
:1026F00052FD06461AE1F4A1606820F03AFC78B970
:10270000032D02DA4FF0FF30A4E500221146A06845
:1027100020F07BFC0746F8B2FFF722FD064605E1F4
:10272000EBA1606820F025FC50B9FFF70CFD0646D0
:10273000002EDFDACD22E849E8A00AF0ABFBF5E095
:10274000F2A1606820F015FC00287DD1062D01DA89
:10275000401E7FE54FF46E71EE4820F0D0FB012063
:10276000EC4988700A2081F84300C91CEAA002687D
:102770000A6042684A60008908810120C91E81F808
:1027800046000A2081F8870001F14700E2A10A68AB
:1027900002604A684260098901810120DD4981F8AF
:1027A0008A000A2081F8CB0001F11300DAA10A683F
:1027B00082674A68C2670989A0F880100120D5495C
:1027C00081F8CE00002081F8CF00012081F8D100EF
:1027D000002081F8D200012081F8D40081F8D500D2
:1027E00000221146A06820F010FCC1B2C94880F850
:1027F000D61000221146E06820F007FCC1B2C5489F
:1028000080F8D71000221146206920F0FEFBC1B2EB
:10281000C04880F8D81000221146606920F0F5FB0E
:10282000C1B2BC4880F8D910012180F8F0100A210B
:1028300080F83111F130BBA10A6802604A68426039
:1028400009890181012100E069E0F13880F8341143
:102850000A2180F8751100F23510B2A10A680260F1
:102860004A684260098901810121AA4880F87811EB
:102870000A2180F8B91100F27910AAA10A68026051
:102880004A684260098901810121A24880F8BC118F
:10289000002180F8BD11012180F8BF11002180F8CE
:1028A000C01101209B4981F8D4000121994880F88A
:1028B000C31100221146A06820F0A7FBC1B29548C1
:1028C00080F8C41100221146E06820F09EFBC1B2DE
:1028D000904880F8C51100221146206920F095FB30
:1028E000C1B28C4880F8C61100221146606920F000
:1028F0008CFBC1B2874880F8C7114FF46E72014655
:1029000001200EF079FF0646002E04DA314688A039
:102910000AF0C0FA0AE08FA00AF0BCFA06E096A01E
:1029200061680AF0B7FA4FF0FF3093E4304691E463
:102930002DE9F04180460F461646032F07DA9548E9
:10294000016895A00AF0A6FA0020BDE8F0810022F7
:102950001146706820F059FB044600221146B06809
:1029600020F053FB0546062C06D38A480560016813
:102970008FA00AF08FFA14E03DB10120A0408549F4
:10298000096808438349086006E00120A0408149A6
:10299000096881437F4801602A4621468AA00AF0DF
:1029A00079FA0020D1E7F8B50EF056F80646002473
:1029B00003258C4903200EF0A7FECC20009007E0F1
:1029C0006A46894900200EF0A4FE044604B904E0DA
:1029D0002800A5F101014DB2F2D100BF002C02DDAB
:1029E0000098CC282BD0214680A00AF053FA7E48CC
:1029F000009920F084FA87A01EF0F5FF7A4908605C
:102A000087A01EF0F0FF7849086189A01EF0EBFF57
:102A10007549C86086A01EF0E6FF7349486084A02F
:102A20001EF0E1FF7049886040F25B70C88240226E
:102A3000AFF28C316C48483020F07EFA02E07EA084
:102A40000AF028FA4FF46E7000906A46314901206E
:102A50000EF05FFE0446002C03DD0098B0F56E7F9B
:102A60001BD021467AA00AF015FA2A48009920F0D6
:102A700046FA01202749087081F8EE0081F8DC0150
:102A800081F8CA0281F8D4000121224880F8C211DD
:102A900080F8B01280F89E1302E076A00AF0FAF9EE
:102AA00044F6706000906A467A4902200EF031FECA
:102AB0000446002C04DD44F670610098884201D081
:102AC0002146E9E0F0E000006B6973666C61670025
:102AD000726573746F726500DB42021A5B4150507D
:102AE0005F4552525D3A2025733A25642D3E536569
:102AF000742064656661756C7420636F6E666967C7
:102B0000206572726F72210A0000000066756E63A4
:102B100000000000EC07001031323334353637380E
:102B2000390000003938373635343332310000008F
:102B30005B4150505D3A207361766520636F6E741F
:102B4000726F6C206D6F6465206661696C656420CE
:102B500025640A005B4150505D3A20736176652020
:102B6000636F6E74726F6C206D6F646520656E7636
:102B7000206F6B0A000000005B4150505D3A204E10
:102B80006F7420737570706F727420636D6420258C
:102B9000730A0000645008105B4150505D3A206396
:102BA0007572207072746F6E3D307825780A00005F
:102BB0005B4150505D3A20736574207072746F6E83
:102BC0003D307825780A00005B4150505D3A207313
:102BD0006574206D6F642564207072746F6E3D257E
:102BE000640A00003C500810200700105B41505060
:102BF0005D3A206C6F616420656E76206661696C59
:102C000065643D25642C2075736520646566617577
:102C10006C740A003139322E3136392E302E3100A3
:102C20003235352E3235352E3235352E3000000016
:102C3000302E302E302E30005B4150505D3A206CEB
:102C40006F6164206C706320656E76206F6B0A0084
:102C50005B4150505D3A206C6F616420636F6E740D
:102C6000726F6C206D6F6465206661696C65643D90
:102C700025640A005B4150505D3A206C6F6164200E
:102C8000636F6E74726F6C206D6F6465206F6B0A7A
:102C900000000000A40B0010E9A00AF0FBF8F048C7
:102CA000009920F02CF902E0EEA00AF0F3F8F348C6
:102CB0000AF06CFAF2480AF069FAF2480AF066FA89
:102CC0002046F8BD70B505460024EF4840686860AE
:102CD00018222946EC4820F0EBF8CC22EA490020E3
:102CE0000EF08AFD0446002C0ADAE848007800F06D
:102CF000080070B12146AFF28C600AF0CBF808E012
:102D0000E248007800F0080018B1AFF280600AF0E5
:102D1000C1F8204670BD4FF4FA50704738B50446EC
:102D20000DF09AFE05465421204620F0E8F8D8A080
:102D3000DAA3DDA22021009004F10A0020F052FD68
:102D40003DB1202205F1240104F12A0020F0F4F81D
:102D500005E02422D6A104F12A0020F0EDF800209D
:102D600038BD2DE9F84F054688462C464FF000093E
:102D7000CB462078CF2803D04FF0FF30BDE8F88F46
:102D80002079032802DB6FF00100F7E7E0880830C4
:102D9000404502D96FF00200F0E7022704E0E85D49
:102DA000584400F0FF0B7F1CE0880830B842F6D88A
:102DB0006878584502D06FF00300DFE704F1080A95
:102DC000E688E0880090E378A2782179BDA00AF037
:102DD00061F8207920B1012808D0022815D10CE033
:102DE000CC2E02D06FF00900C8E711E0B6F56E7F77
:102DF00002D06FF01300C1E70AE044F6706086422B
:102E000002D06FF01D00B9E702E06FF00400B5E7F3
:102E100000BF2079324651460EF0EEFC8146B9F1F2
:102E2000000F09DA4B464FF42772B049B0A00AF000
:102E300031F86FF00500A1E700209FE72DE9F84386
:102E40000646884691464446D9F80050032E03DBD7
:102E50004FF0FF30BDE8F883082D02D26FF001007B
:102E6000F8E7002020606060CF2020702671083DC8
:102E700026B1012E11D0022E2FD11EE0CC20E080F1
:102E8000E088A84202D96FF00A00E3E7E2887E49B1
:102E900004F1080020F00CF822E04FF46E70E0809E
:102EA000E088A84202D96FF01400D3E7E28897497E
:102EB00004F108001FF0FCFF12E044F67060E080AF
:102EC000E088A84202D96FF01E00C3E7E288644997
:102ED00004F108001FF0ECFF02E06FF00400B9E716
:102EE00000BFE0880090E378A278217988A009F0FB
:102EF000D1FFE08800F10805022705E0607818F8A6
:102F00000710084460707F1CAF42F7D3C9F8005027
:102F100000209FE72DE9F04106460F460020864934
:102F2000087086490870012E01D0BDE8F0810024A8
:102F3000002514E025B1012D05D0022D0CD106E0AD
:102F40000834CC3409E0083404F56E7405E0083424
:102F500044F67060044400E000BF00BF6D1C032D08
:102F6000E8DB214676A009F095FF2046DDE72DE954
:102F7000F041064688463446002741463046FFF772
:102F8000F0FE0746002F09DA3B4640F22F32724925
:102F900057A009F07FFF3846BDE8F08160782178BE
:102FA0000844617808446449097808446249087013
:102FB000E08800F1080506E0705D5F490978084483
:102FC0005D4908706D1C4545F6D30020E4E72DE906
:102FD000F04104460D46264600275848007803284D
:102FE00003DB00202860BDE8F0812A4621465348D3
:102FF0000078FFF723FF0746002F08DA3B464FF41F
:10300000557256493AA009F045FF3846EBE770780B
:10301000317808447178084447490978084446499A
:10302000087046480078401C444908700020DAE7E0
:10303000014611B140480078087000207047000038
:103040005B4150505D3A206C6F61642049522064AE
:10305000617461206661696C65643D25640A0000E5
:10306000A40B00105B4150505D3A206C6F616420EE
:1030700049522064617461206F6B0A006850081027
:103080007C50081090500810200700106450081061
:1030900031363A33353A303200000000446563205F
:1030A000203620323031380025732025730000008F
:1030B00031373838393031333234353637383937BB
:1030C000000000005B4150505D3A207772697465E2
:1030D000206366675B25642E25645D207665723DFE
:1030E0002564206C656E3D25640A00001C43021AAD
:1030F0005B4150505F4552525D3A2025733A25643A
:103100002D3E72746E3D25640A000000EC0700102D
:103110005B4150505D3A2072656164206366675B75
:1031200025642E25645D207665723D2564206C65DE
:103130006E3D25640A0000006050081061500810C0
:103140005B4150505D3A20616C6C20636667206C77
:10315000656E3D25640A00002C43021A3843021AAA
:1031600070B504460D46E14C2946E1A009F092FEF7
:103170002188E2A009F08EFE6188E4A009F08AFEB1
:10318000A188E6A009F086FEE188E7A009F082FEAA
:103190002189E9A009F07EFE6189EBA009F07AFEA1
:1031A000A189EDA009F076FEE189EFA009F072FE99
:1031B000218AF1A009F06EFE618AF3A009F06AFE8F
:1031C000A18AF5A009F066FEE18AF7A009F062FE87
:1031D00070BD10B5F9A1C548FFF7C2FFF9A1C348FA
:1031E0003030FFF7BDFFF9A1C0481830FFF7B8FF36
:1031F000F7A1BE486030FFF7B3FFF6A1BB484830E7
:10320000FFF7AEFF01F0DAFB10BD2DE9F0410746F4
:103210000D461646022D03DA4FF0FF30BDE8F0816F
:103220000022114670681FF0F0FE044614B9FFF743
:10323000D0FF08E023465D22E749E8A009F02AFE16
:103240004FF0FF30EAE700BF0020E7E72DE9F84341
:103250000746884614460025A9460026002C02D8B9
:103260000020BDE8F8830FF014FD8146002635E00C
:10327000082322464146384616F081FC0546A54201
:1032800000D12CE015F10B0F08D02B468A22DD4926
:10329000DDA009F0FFFD4FF0FF30E2E741F2883199
:1032A000484608F092F848B123469022D549DFA05D
:1032B000009509F0EFFD6FF00100D2E70A2008F059
:1032C000F2F8701CC6B2B6F5FF7F07DD9A22CD4931
:1032D000E0A009F0DFFD6FF00200C2E7C8E700BF21
:1032E0002046BEE770B50DF0B7FB0446002500216F
:1032F000084617F0B5FC54B194F8640060B1DF489B
:10330000D4F865100160B4F86910818004E0DB48EE
:103310008078401CD9498870D948007DD749087405
:10332000D748007D78B9D648006860B10846D449CE
:103330000968C0F81110D2490969C0F81510D049C0
:10334000C968C0F81910CD4809F05DFB0546002D8D
:1033500001DA284670BDCA48007D60B1C849C74837
:10336000D0F811000860C548D0F815000861C348BE
:10337000D0F81900C86001F09BFA01F0E5FAC148E5
:1033800009F004FF2846E5E72DE9F84304460F4617
:1033900090461E4600200090002506F12009606935
:1033A000401C6061606917F0AFFC6061384617F03F
:1033B000ABFCA061404617F09BFCA083304617F0A1
:1033C00097FCE083B04800682060A06817F09CFC80
:1033D000A060002017F098FC2061AC48008817F02E
:1033E00087FCE0816A4641F28831A948006810F004
:1033F0009AFB9DF8000040B14FF48772A549A6A042
:1034000009F048FD681EBDE8F883AF480068002851
:1034100002DA6FF001050DE04A462146AA4800682D
:10342000FFF714FF05464D4502D06FF0020500E09E
:10343000002500BF9648006810F01AFC002D06DA3F
:103440002B464FF491729349A0A009F023FD284622
:10345000D9E710B50446202120461FF050FD00207A
:1034600017F052FC206110BD2DE9F04F87B00746E0
:1034700000240025A246A34607F12004D7F81490A3
:103480009C480078012820D19B4800689B49096826
:10349000884206D39848006898490968A0EB01085B
:1034A00007E096480068C0F1FF309349096800EBD7
:1034B000010840F6B830804505D300208D490870DA
:1034C0007249088001E040F6B839484640F6D41207
:1034D000A9EB0201914505D005DCA0F6C4100F2828
:1034E00002D20DE19DE115E198E10000D85D0010E8
:1034F00025735F53544154530A000000097C2D7812
:103500006D69743A090925750A000000097C2D725D
:103510006563763A090925750A000000097C2D6665
:10352000773A090925750A00097C2D64726F703A93
:10353000090925750A000000097C2D63686B657216
:10354000723A0925750A0000097C2D6C656E65725A
:10355000723A0925750A0000097C2D6D656D65724A
:10356000723A0925750A0000097C2D727465727221
:103570003A0925750A000000097C2D70726F746588
:1035800072723A0925750A00097C2D6F7074657294
:10359000723A0925750A0000097C2D6572723A0994
:1035A0000925750A00000000097C2D6361636865C8
:1035B0006869743A0925750A0000000045544841BD
:1035C0005250000049434D50000000004950000097
:1035D00054435000554450004343021A5B4E455437
:1035E0005F4552525D3A2025733A25642D3E636D46
:1035F000645B25755D206E6F7420737570706F72DB
:10360000740A00004F43021A5B4E45545F45525204
:103610005D3A2025733A25642D3E6661696C2C72F3
:10362000746E203D2025640A000000005B4E455466
:103630005F4552525D3A2025733A25642D3E7469E8
:103640006D656F75743A20733D25642072746E3D0C
:1036500025640A005B4E45545F4552525D3A202571
:10366000733A25642D3E4F73616C54696D654166F4
:103670007465724D73206661696C0A00BC50081055
:10368000200700101C510810AC500810B250081050
:10369000A45008105A43021A5B4E45545F455252DB
:1036A0005D3A2025733A25642D3E676574206C6F62
:1036B000636B206661696C2C6E6F742073656E6439
:1036C0002061636B0A000000A85008105B4E45544F
:1036D0005F4552525D3A2025733A25642D3E73654D
:1036E0006E642061636B206572722C72746E3D256E
:1036F000640A0000B45008101C500810B85008109C
:10370000DFE800F01C8CEF8CEE8CED8CEC8CEB8CFD
:10371000EA8C62000A297DD008DC02297BD00429CA
:103720007AD0062979D0082978D14FE10F2976D0AF
:10373000112975D0B1F5F27FF6D1AEE1264606F13A
:1037400040023146F6A009F0A5FB40223146FBA01D
:103750001FF033FC90B148F2010AFB480088401C7E
:10376000F949088008460088052806D10120F74954
:103770000870F7480068F749086094E1402206F1B4
:103780004001F5481FF019FC90B148F2020AEE48DA
:103790000088401CEC49088008460088052806D1AE
:1037A0000120EA490870EA480068EA4908607AE1BD
:1037B0000020E5490880E848483890F8890010B9A9
:1037C00048F20A0A6FE16EE12646E3484838007D78
:1037D0003070E1494839C86817F096FAF060DE4960
:1037E0004839086917F090FAB060DB494839086831
:1037F00017F08AFA7060D8494839886817F084FA57
:103800003061D5494839C88A17F072FA70804FF094
:10381000140B48E17AE0DAE03BE044E040E161E0AB
:103820006BE0264630788DF81800706817F079FA4A
:103830000190B06817F075FA0590F06817F071FA0A
:103840000490306917F06DFA0390708817F056FAFB
:10385000ADF81A00C048483840680290182201A903
:10386000BD4848381FF024FBCC22BB494839002012
:103870000DF0C2FF0546002D07DA2B4640F2AF12CD
:10388000B649B7A009F006FB02E0BFA009F002FBB1
:1038900009E126464FF46E72C14930461FF008FB1D
:1038A0004FF46E7BFFE026464FF46E723146BC4803
:1038B0001FF0FEFA4FF46E72B94901200DF09CFF23
:1038C0000546002D04DA2946B6A009F0E3FA02E025
:1038D000BDA009F0DFFAE6E0BDE09BE051E074E056
:1038E0005FE028E026463078012802D1FEF76EFC22
:1038F00002E00020FEF76AFCD5E0204696494839F0
:1039000091F8881001704FF0010BCCE02646B748C3
:10391000007818B900203060706009E0B449086888
:1039200017F0F2F93060B249486817F0EDF97060AD
:103930004FF0080BB7E0264606F14000FEF761FCA9
:103940000546002D08DA4FF402728449A9A009F057
:10395000A1FA48F2080AA6E07F48483890F88900A2
:1039600070B90120FEF717FC0546002D08DA40F279
:1039700012227A49A9A009F08DFA48F2080A92E0C9
:1039800091E000231A4619463846FFF7FDFCAEA029
:1039900009F080FA4FF47A7007F085FD07F092FD88
:1039A00081E026463046FFF7B9F90546F08817F062
:1039B0009FF9F080308917F09BF93081306D17F056
:1039C000A3F930654FF0540B6DE06CE06BE02646D8
:1039D000402206F1400160481FF0EFFA40B14FF479
:1039E00011725E49A0A009F055FA48F2020A5AE0A5
:1039F000FEF7A9FB0546002D08DA4FF4137257496C
:103A0000A2A009F047FA48F2080A4CE0A6A009F083
:103A100041FA48E0AA48007840B14FF416724F4985
:103A2000A8A009F037FA48F2090A13E04FF4A87287
:103A30002146AF481FF03CFAAD49086817F071F90C
:103A4000AB490860486817F06CF9A9494860012043
:103A50009B49087027E09A480078022808D140F274
:103A60006A223E49A3A009F015FA48F2090A13E0B8
:103A70004FF4A87221469E481FF01AFA9C49086824
:103A800017F04FF99A490860486817F04AF99849C1
:103A9000486002208A49087005E048F20B0A02E0FB
:103AA0004FF4004A00BF00BF5B46524629463846E5
:103AB000FFF76AFC0543284607B0BDE8F08F2DE903
:103AC000F04387B005460F464FF000092C46A0682A
:103AD00017F027F9A060A08917F010F9A081E089FC
:103AE00017F00CF9E081206917F01BF9206160697B
:103AF00017F017F96061A06917F013F9A061A08BA6
:103B000017F0FCF8A083E08B17F0F8F8E083606909
:103B1000B0F57A7F03D140F2A922824904E10BE19A
:103B20005B4E45545D3A20726571206C6F67696E1B
:103B30003A2025732025730A000000004B6564615C
:103B40005F55736572000000B2500810B450081041
:103B50001C500810B8500810680700106743021A7C
:103B60005B4E45545F4552525D3A2025733A2564B9
:103B70002D3E7365742065746820697020666169E4
:103B80006C65642025640A005B4E45545D3A2073E1
:103B9000657420657468206970206F6B0A000000EE
:103BA000EC0700105B4150505D3A20736176652050
:103BB000636F6E74726F6C206D6F646520666169EF
:103BC0006C65642025640A005B4150505D3A2073A7
:103BD00061766520636F6E74726F6C206D6F6465C3
:103BE00020656E76206F6B0A0000000020500810E0
:103BF000345108105B4E45545F4552525D3A2025C2
:103C0000733A25642D3E7365742070617373776F0A
:103C10007264206661696C6564210A005B4E4554DC
:103C20005F4552525D3A2025733A25642D3E7365F7
:103C30007420696E697420666C6167206661696CC6
:103C40006564210A000000005B4E45545D3A207215
:103C500065626F6F742073797374656D206E6F7712
:103C60002E2E2E0A000000005B4E45545F45525236
:103C70005D3A2025733A25642D3E70617373776435
:103C8000206572726F72210A000000005B4E45547D
:103C90005F4552525D3A2025733A25642D3E666198
:103CA000696C6564210A00005B4E45545D3A2072E0
:103CB0006573657420636667206F6B0A00000000FF
:103CC000B05008105B4E45545F4552525D3A202576
:103CD000733A25642D3E6669727374207570646151
:103CE0007465206E6F742066696E697368210A00BE
:103CF0006C5908105B4E45545F4552525D3A202581
:103D0000733A25642D3E7365636F6E64207570642D
:103D1000617465206E6F742066696E697368210A2C
:103D2000000000007543021AEBA009F0B3F84FF44D
:103D30007A7007B0BDE8F083F348007800F0020025
:103D400088B12023E08BA18BA269CDE90403CDE9E2
:103D50000221D4E90401CDE90001E389A289EB48FD
:103D6000A16809F097F8E18BA7F12000814213D0F8
:103D70006169CDE90001E38B40F2B922E449E5A095
:103D800009F088F8002348F2050219462046FFF79B
:103D9000FBFA4FF0FF30CCE704F12008DA48007856
:103DA00000F00200D8B1E18BEAA009F073F8002618
:103DB0000FE0F11706EB11710911A6EB011111B912
:103DC000D0A009F067F818F80610E7A009F062F82B
:103DD000761CE08BB042ECDCCAA009F05BF8204610
:103DE000FFF742FB81464846A3E7ADF5C06D0020D2
:103DF0000C90002542F210700B9010200290FFF7FB
:103E000071FA01200FF00CFED949086008460068DD
:103E100058B940F2EB22D749D7A009F03BF803E0AC
:103E20004FF47A7007F03FFBFAE700BF4FF0FF3026
:103E3000D84908600020D8490860CDF8F005CDF8D1
:103E4000F405CDF8F805CDF8FC0502208DF8F10554
:103E50004FF4FA5016F04CFFADF8F205002016F0C2
:103E600053FFCDF8F40500220121022015F004FFD4
:103E70000746002F0CDA40F2FD22BE49C7A009F028
:103E800009F84FF47A7007F00EFB4FF0FF37CDE7DB
:103E900010220DF5BE61384615F089FB054665B167
:103EA00040F20732B349CCA008F0F4FF4FF47A7027
:103EB00007F0F9FA4FF0FF37B8E70A21384615F056
:103EC00050FC054665B140F21132AA49D1A008F074
:103ED000E1FF4FF47A7007F0E6FA4FF0FF37A5E7FD
:103EE00000BF4FF0FF30AB49086000200C900CAAD7
:103EF000D749384616F0E2FC02AA0DF5BC613846F7
:103F000015F072FA0646002E00DAEAE7D1A008F0B2
:103F1000C1FFA048066004200BAB41F20602D11F8E
:103F20000090304616F01BFC054635B12B464FF489
:103F30004B729049D0A008F0ADFF0EF0AAFE80466B
:103F40000DF2E4501DF0AFFD814642464946D6A031
:103F500008F0A0FF01200C900CAABD49384616F0CD
:103F6000ADFC75E0DA48007858BB02AA0DF5BC61DB
:103F7000384615F039FA0646002E22DD0EF089FE8D
:103F800080460DF2E4501DF08EFD814642464946C2
:103F9000D0A008F07FFF03A8FFF75BFA40F6DF1020
:103FA000089000231A46194603A8FFF7EDF94FF4CD
:103FB000FA7007F078FA7748006815F04DFB7548FD
:103FC000066040F2AC510DA81EF099FF40F2AC52D1
:103FD0000DA97048006815F039FD0446002C0FDA71
:103FE000234640F253326349C7A008F053FF6948A3
:103FF000006815F031FB4FF0FF306649086070E74C
:10400000ACB90EF046FE80460DF2E4501DF04BFDBB
:10401000814642464946C4A008F03CFF5D4800681E
:1040200015F01AFB4FF0FF305A49086059E7214656
:104030000DA8FFF744FD0546B5F57A7F08D1554830
:10404000006815F009FB4FF0FF305249086048E75F
:1040500088E72DE9F0410446254604F11006371F94
:104060003A463146284608F0D4F9BDE8F081C6B09A
:1040700000250DF1180808F120056CE2944800783D
:1040800020B94FF4FA7007F00EFA64E2002700241A
:104090008F48007801281DD17BE14821AB481EF0F4
:1040A0002EFF002C03DA4FF47A7007F0FCF9A848D1
:1040B0001DF0F9FC8346A64890F84D01A44991F8FB
:1040C0004C11CDE901070091A1485A4600F10801C1
:1040D00043683FE191E100005B4E45545F45525219
:1040E0005D3A2025733A25642D3E736572766572BC
:1040F000206C6F73742C2072652D636F6E6E656318
:10410000742069740A000000645008109C50021A60
:104110007543021A5B4E45545F4552525D3A202565
:10412000733A25642D3E726376206C656E2065724D
:10413000722C206D73676C656E3D2564207263760A
:104140006C656E3D2564206576743D307825780A6F
:10415000000000005B4E45545D3A20726563766551
:10416000642025640A000000202530327800000019
:10417000A45008108343021A5B4E45545F455252C7
:104180005D3A2025733A25642D3E6E6F2073656D70
:104190000A000000A8500810AC5008105B4E4554AF
:1041A0005F4552525D3A2025733A25642D3E637275
:1041B0006561746520736F636B6574206661696CFB
:1041C00065642C2074727920616761696E20616674
:1041D0007465722031730A005B4E45545F4552523C
:1041E0005D3A2025733A25642D3E62696E64207322
:1041F0006F636B6574206661696C65642C207472F2
:104200007920616761696E2061667465722031731F
:104210000A0000005B4E45545F4552525D3A20252E
:10422000733A25642D3E6C697374656E20736F63F9
:104230006B6574206661696C65642C2074727920EA
:10424000616761696E2061667465722031730A006E
:104250007E6604805B4E45545D3A20576169746503
:1042600020636C69656E7420746F20636F6E6E6579
:1042700063742E2E2E0A00005B4E45545F45525249
:104280005D3A2025733A25642D3E73657420534FA3
:104290005F52435654494D454F206661696C6564D1
:1042A0003D25640A000000005B4E45545D3A2063E2
:1042B0006F6E6E656374656420746F20636C6965EE
:1042C0006E745B25735D2061742025756D730A0023
:1042D000B05008105B4E45545D3A20636F6E6E65BA
:1042E0006374656420746F20616E206F74686572FA
:1042F00020636C69656E745B25735D206174202595
:10430000756D730A000000005B4E45545F455252C4
:104310005D3A2025733A25642D3E726561642065FF
:1043200072723D2564210A005B4E45545D3A20635C
:104330006C69656E745B25735D20636C6F73656477
:104340002061742025756D730A0000002457081041
:104350006C59081080A008F09DFD8F498FA008F0CF
:1043600099FD8D494839924A0868483111F0F4FBAB
:1043700090480068904988420AD08E4840F2B7328F
:104380008E4903688EA008F085FD4FF0FF3400E0F1
:1043900005E0781CC0B2074603287FF77EAE00BF59
:1043A000002C02DA48F2080000E000208246404675
:1043B000FFF74FF84FF41E60C8F814002E467D49F1
:1043C000086816F0A1FC354630607A4800793071F3
:1043D00040227849491D701D1EF06AFD002086F8B4
:1043E00045004FF048094B46524621464046FEF7ED
:1043F000CBFF00207E490870ACE089E000206D49C9
:1044000081F84500002C03DA4FF47A7007F04BF87E
:10441000614848381DF047FB06465F48483890F829
:104420004D015D49483991F84C11CDE901070091E2
:1044300059484838324600F1080143686DA008F039
:1044400029FD554955A008F025FD0020059005AA35
:10445000022151484038FCF7BDFF0446002C07DA22
:10446000234640F2E932554972A008F013FD4FE0AF
:1044700049494839794A0868483111F06DFB0446CA
:10448000454848384068A0420AD0234640F2F232FC
:104490004A4973A008F0FEFCFDF721F97A4C37E099
:1044A00004A8FCF7CEFF0446002C07DA234640F2AE
:1044B000FB32424975A008F0EDFC29E03648483847
:1044C00090F84C0118B33448483890F84D019DF8E5
:1044D000101088420DD03048483890F84D010090B7
:1044E0009DF8103040F20442344973A008F0D2FC29
:1044F0000EE07E48007800F0020040B126484838BF
:1045000090F84D219DF8101079A008F0C3FC05E04B
:10451000781CC0B2074603287FF770AF00BF4FF486
:104520007A7006F0C0FF002C02DA48F2080000E0C2
:10453000002082464046FEF78CFF40F6E110C8F8A6
:1045400014000023524621464046FEF71DFF00207E
:104550002749087000BF91E55B4E45545D3A2066DF
:104560006972737420746674702075706461746904
:104570006E672025732066726F6D20257320737A15
:104580003D25752073756D3D25643A256420747250
:10459000793D25640A000000B45908105B4E45546B
:1045A0005D3A2066696C653A2025730A00000000B8
:1045B0000118001A24570810785634128E43021A34
:1045C0005B4E45545F4552525D3A2025733A25644F
:1045D0002D3E4765744657496E666F206661696C6B
:1045E000206D616769633A307825780A0000000021
:1045F000B05008105B4E45545D3A207365636F6E92
:10460000642074667470207570646174696E6720CC
:1046100025732066726F6D20257320737A3D257592
:104620002073756D3D25643A2564207472793D25AB
:10463000640A00005B4E45545F4552525D3A2025A6
:10464000733A25642D3E46775570646174654F70EA
:10465000656E206661696C3D25640A00EF16001ADC
:104660005B4E45545F4552525D3A2025733A2564AE
:104670002D3E546674705265637646696C6520669B
:1046800061696C3D25640A0018FCFFFF5B4E4554D0
:104690005F4552525D3A2025733A25642D3E467798
:1046A000557064617465436C6F7365206661696CF5
:1046B0003D25640A000000005B4E45545F455252A0
:1046C0005D3A2025733A25642D3E636865636B204F
:1046D00073756D20657272212063616C633D25786E
:1046E0002072637665643D25780A000064500810E6
:1046F0005B4E45545D3A20667720636865636B20A6
:1047000073756D206F6B2C2063616C633D25782081
:1047100072637665643D25780A000000F0B5B3B099
:1047200005460CF099F90646002415AB16AA17A900
:1047300018A808F04DFB682119A81EF0E0FB9DF8B1
:10474000540018B1012016F0D3FA00E00020ADF8B3
:1047500064009DF8630000069DF8621040EA014085
:104760009DF8611040EA01209DF860100843CDF8E3
:1047700066009DF85F0000069DF85E1040EA01406B
:104780009DF85D1040EA01209DF85C100843CDF8CB
:104790006A009DF85B0000069DF85A1040EA01404F
:1047A0009DF8591040EA01209DF858100843CDF8B3
:1047B0006E0000208DF87A0000211F91ADF8C01026
:1047C000464800680A21B0FBF1F7384616F09CFA1B
:1047D000CDF872002EB13189706840EA0140CDF801
:1047E000760001208DF8C2008DF8C30028196622DA
:1047F00019A91EF05DFB04F1660084B29DF8C200A9
:10480000C8B12C210AA81EF07AFB202234A10AA8E4
:104810001EF092FB36B10B2206F124010DF1490086
:104820001EF08AFB28192C220AA91EF041FB04F174
:104830002C0084B200BF9DF8C30060B124210CA8F5
:104840001EF05DFB2819212229A11EF031FB04F185
:10485000210084B200BF402105A81EF050FB26A015
:1048600000210422CDE90112CDE903100220052325
:1048700024A24021009005A81EF0B4FFF722204694
:10488000611C8CB22A542046611C8CB22A5428190F
:10489000402205A91EF00CFB04F1400084B2204622
:1048A00033B0F0BD0146002070470146002070473C
:1048B00010B5182118481EF022FB17480C3008F0DC
:1048C00077FA16481449086015484860154888600A
:1048D000084610F0CBFE002010BD00001C50081050
:1048E000524F4F4D204B49542031303000000000D2
:1048F000524B3130300000003230313831323036F6
:10490000000000005625642E25642E25642E2564A3
:104910002E25642E25730000145A00101D47001A1E
:10492000A548001AAB48001A10B5044634B1274810
:1049300008F033FE012009F0A6F802E0244808F050
:104940002CFE2448047010BD10B5204800210160E1
:104950004160816001201D4988721F4808601F481E
:10496000486054211E481EF0CAFA1EA01C49086067
:1049700027484860274888602748C860274848611A
:10498000402008618861084611F036FC10BD70B502
:1049900005461048007858B10021022006F046FB79
:1049A0000446002C04DD11F0D2FF0020FFF7BCFF0D
:1049B00011F0BCFE002011F045FD70BD10B5084897
:1049C000C28E818E16A008F065FA10BD805A0010C4
:1049D00014070010305108102568011ACB68011A1D
:1049E0002C5A00100D0A57656C636F6D6520746F4B
:1049F00020524B3130302D424F4F540D0A506C65D0
:104A000061736520696E707574207077643A000078
:104A1000680700102949001A8C5A0010CC5A00105F
:104A20005B4150505D3A2074656C6E65742073650F
:104A30006D206572723A2067626C3D25752074782E
:104A40003D25750A0000000070B505460A2D02DB01
:104A50004FF0FF3070BD05EB4500954901EB800438
:104A6000A37861782078E02204F0E0F9E07805F09E
:104A700009F9A06805F0EFF962792179A06805F0DD
:104A8000C2FAA06805F0F6F90121A06805F0E6F980
:104A90000020DFE770B5044604EB4400844901EBD5
:104AA00080060A2C01DB002070BD0025B06805F0EF
:104AB000F3FA05462846F7E770B500247C4D0C351F
:104AC0000120FFF7C1FF0120FFF7E4FF044641F298
:104AD000883006F0E8FC0120FFF7DCFF04460021E7
:104AE000A86805F0BBF9204670BD70B50024704D74
:104AF00000210120FBF79BFC0020FFF7A5FF002011
:104B0000FFF7C8FF044641F2883006F0CCFC0020D5
:104B1000FFF7C0FF04460021A86805F09FF9204672
:104B200070BD70B5002401210846FBF780FC604D84
:104B30000020FFF789FF0020FFF7ACFF044641F299
:104B4000883006F0B0FC0020FFF7A4FF04460021E7
:104B5000A86805F083F9204670BD2DE9F041804634
:104B60000C46154600260027022C07DA7F22514901
:104B700051A008F08FF90020BDE8F0810022114615
:104B800068681EF042FA06463EB9FFF795FF0746F1
:104B9000394652A008F07EF910E0012E07D1FFF748
:104BA000A4FF0746394654A008F074F906E0FFF761
:104BB000B8FF0746394657A008F06CF90020DBE73C
:104BC00010B578213A481EF09AF90120384908704A
:104BD0000C204870042088700120087148715448E6
:104BE00088600120C87008730D2131484173042189
:104BF000817301210174002141744D4941610021FB
:104C0000C1734C4808F0C2FA10BD2DE9F04100BF55
:104C100000250024FFF750FF074641F22E0078439D
:104C2000454948600846406818B900BF0020086040
:104C300007E0FFF776FF054605EB450040003E49DB
:104C400008603D4840683D4988422FD93C4800787B
:104C5000401C3B490870384841683948027839A0FF
:104C600008F018F93648007805281FDD32484168F9
:104C7000334802783EA008F00DF900240FE02646E4
:104C800004EBD6704010A4EB4000C1B20320FBF748
:104C9000CEFB4FF4FA7006F006FC601CC4B20A2C7E
:104CA000EDDBFBF700FF002025490870BDE8F0812F
:104CB000BC5A0810A343021A5B4150505F45525240
:104CC0005D3A2025733A25642D3E6D696E206E6530
:104CD0006564203220617267730A00005B415050A6
:104CE0005D3A20486C773830313220506F776572EA
:104CF0003A25750A000000005B4150505D3A20489B
:104D00006C773830313220566F6C746167653A25A4
:104D1000750A00005B4150505D3A20486C7738308E
:104D200031322043757272656E743A25750A00003F
:104D3000004008403C51081034510810006A180027
:104D400050510810576172696E6720506F77657215
:104D50003A25646D57203E20313630303030306D8A
:104D6000412045787054696D65733A25640A0000E6
:104D7000576172696E6720506F7765723A25646D6E
:104D800057203E20313630303030306D412045786C
:104D90007054696D65733A256420506F7765722091
:104DA000646F776E210A000070B500BF00240026F2
:104DB00000BF20E0FA49601C51F8200051F824108F
:104DC00088420AD3F649601C51F8200051F824109B
:104DD000401AF44941F824000CE0F14850F824004E
:104DE000C0F1FF31EE4A601C52F820000844ED4942
:104DF00041F82400641CEA48D0F8D007A042D9D872
:104E0000E748D0F8E807E649D1F8E417884207D325
:104E1000E348D0F8E807E249D1F8E417461A08E079
:104E2000DF48D0F8E407C0F1FF30DD49D1F8E817DA
:104E30004618DD48B0FBF6F0DA49C1F8D007DB4987
:104E4000097801EB8102C2EB0121D94A02EBC100D2
:104E50004FF4FB62D3491EF02BF844F67062D4493C
:104E600002200CF0C9FC0546002D04DA2946D1A029
:104E700008F010F802E0D7A008F00CF870BD10B5EB
:104E8000C74890F8E007012804D0C54890F8E0072B
:104E9000022824D1C248D0F8D007C149D1F8D4178C
:104EA000884216D8BE48D0F8D807BD49D1F8D017E7
:104EB000BB4A42F821000320114681F8E007002197
:104EC000CB4804F0CBFF0D2000F0D4FAFFF76CFFC5
:104ED00005E0B348D0F8D007B149C1F8D40710BDF8
:104EE00010B500240523E0220221184603F09EFF9E
:104EF000062004F0C7FEBE4804F0ADFF02220021E8
:104F0000BB4805F054F8BA4804F0B4FF0121B84892
:104F100004F0A4FF601EB64908601D2002F01CF9D1
:104F200004462146B3A007F0B5FF0D2000F0ABFA10
:104F30000D2000F094FA10BD70B505460C461646DB
:104F40002821B2481DF0DBFF002E25D10220AF49F9
:104F5000086008464560012008720221AB48417292
:104F600081720A21C172D021017314B900214173E9
:104F700002E00121A5484173A44884730221017411
:104F800005214174022181740B21C174D021017566
:104F900000214175847552E0012E25D102209B49E4
:104FA0000860084645600120087202219748417256
:104FB00081720A21C172D02101730021417384736F
:104FC0000221017405214174022181740B21C174F5
:104FD000D021017514B90021417502E001218B48EF
:104FE00041758A4884752AE002208849086008468D
:104FF00045600120087202218448417281720A21B1
:10500000C172D021017314B90021417302E0012162
:105010007E4841737D4884730221017405214174E7
:10502000022181740B21C174D021017514B90021B2
:10503000417502E0012175484175744884757348D3
:1050400005F0FDF870BD10B5044640F2EC7154480F
:105050001DF055FF4FF4FB6152481DF050FF5348BF
:10506000047000204E4981F8E007FFF739FF10BDBA
:105070002DE9F04107460C4615460026022C05DABC
:1050800063A007F007FF701EBDE8F0810022114603
:1050900068681DF0BAFF0646F0B2FFF7D4FF0020A3
:1050A000F2E710B586B004465F4804F0D4FE002055
:1050B0008DF810000120059004AA00215A4804F040
:1050C0006FFE00208DF8040001208DF805008DF89A
:1050D000070000208DF806008DF80800039401A950
:1050E000514804F0D0FE504804F0C4FE01214E485F
:1050F00004F0B4FE4FF0FF304B4908600E2000F082
:10510000C2F90E2000F0ABF906B010BD70B5044630
:105110000D464FF4FB6123481DF0F1FE04EB8400C3
:10512000C0EB0420224A02EBC0014FF4FB621D4891
:105130001DF0BEFE3D48057000201A49C1F8D40795
:10514000D1F8D417174A52F82100FFF7AAFF1549E2
:10515000D1F8D00735490A783221FFF7EDFE70BD4E
:105160002DE9F04180460D4614460027032D05DA4F
:1051700027A007F08FFE781EBDE8F08100221146BF
:1051800060681DF042FFC7B200221146A0681DF002
:105190003CFFC6B231463846FFF7B8FF0020EBE7C8
:1051A0005C5B08104863081000D2496B01000810CE
:1051B000A40B00105B4150505D3A2073617665206E
:1051C00069722064617461206661696C6564202580
:1051D000640A00005B4150505D3A2073617665209F
:1051E0006972206461746120656E76206F6B0A00BD
:1051F000005008405374617274204972537475648E
:105200007920636C6B3A25640A000000345B081057
:105210005B4150505D3A206E656564206D6F72652C
:1052200020617267730A000000300C400000081013
:1052300010B599A007F02EFE9D4807F0A7FF9D48E6
:1052400007F0A4FF10BD10B500241EF061FA0CF0A9
:105250002EFF1EF064FA984890F8E007012878D1F4
:1052600096480068401C954908609548406B9249F3
:10527000C1F8DC070846D0F8DC07D1F8D817884217
:1052800007D98D48D0F8DC078B49D1F8D817441AD4
:1052900008E08948D0F8D807C0F1FF308649D1F836
:1052A000DC17441844F2506084422CD9854884426B
:1052B00029D28148D0F8D8077F49D1F8D0177E4A43
:1052C00042F821001046D0F8D007401C1146C1F822
:1052D000D0070846D0F8DC07D1F8D01742F82100F3
:1052E0001046D0F8D007401C1146C1F8D007084638
:1052F000D0F8D00740F2C311884222D102201146D3
:1053000081F8E0071DE044F25060844219D26A48F7
:10531000D0F8D007022814D268480068052806D1C2
:105320006548D0F8DC076449C1F8E40709E0634840
:1053300000680F2805D16048D0F8DC075E49C1F845
:10534000E8075D48D0F8DC075B49C1F8D80723E0DF
:10535000FFE7594890F8E007F0B95948406B5649C3
:10536000C1F8DC070846D0F8DC07D1F8D017524A5C
:1053700042F821001046D0F8D007401C1146C1F871
:10538000D0070846D0F8DC07C1F8D807012081F81B
:10539000E0070020494908604FF0FF3048490860A5
:1053A0000CF093FE10BD10B500241EF0B1F90CF006
:1053B0007EFE1EF0B4F90021434804F0C4FC01282D
:1053C0004AD14248D0F8D407401C4049C1F8D4071C
:1053D0000846D0F8D40751F8204054B3084690F856
:1053E000D40700F0010088B1D1F8D00738490A7815
:1053F0000021FFF7A1FD3548D0F8D407334951F813
:1054000020200021304804F094FD21E02F49D1F8FC
:10541000D0072F490A783221FFF78EFD2B48D0F8AC
:10542000D4072A4951F820200021274804F081FDA3
:105430000EE02649D1F8D00725490A780021FFF768
:105440007BFD0021204804F009FD0E2000F012F839
:1054500000211D4804F090FC0CF037FE10BD00F058
:105460001F02012191404209920002F1E022C2F89C
:105470000011704700F01F0201219140154A4309B5
:1054800042F82310704700F01F0201219140124A98
:10549000430942F8231070475B4150505D3A204960
:1054A00072537475647920496E69740A00000000B3
:1054B00004000810180008105C5B08102C0008108D
:1054C00000500840C065520000300C40486308108E
:1054D0000000081080E100E080E200E00246107861
:1054E0007B2805D1481E105C7D2801D10120704722
:1054F0000020FCE72DE9F74F8946144649460098FD
:105500001DF008FD074648461DF02CFD00F0FF0B7E
:1055100007EB0B050FB317F8010C22281DD12878D3
:1055200022281AD168783A2817D1A878222814D1CD
:10553000EE1CFEA130461DF0EDFC8246AAEB0600F3
:1055400000F0FF084246314620461DF0F5FC0020E1
:1055500004F808000120BDE8FE8F0020207000BF85
:10556000F9E72DE9F74F88461546414600981DF0AA
:10557000D1FC064640461DF0F5FC00F0FF0B06EBA3
:105580000B04F6B116F8010C22281AD12078222833
:1055900017D160783A2814D1A078222811D1E71CBD
:1055A000E2A138461DF0B6FC8146A9EB070000F0E9
:1055B000FF0A5246294638461DF0BEFC0120BDE8D0
:1055C000FE8F0020287000BFF9E770B504460D4635
:1055D000294620461DF0CDFC08B9012070BD0020F1
:1055E000FCE770B505460C4654B10020D049087060
:1055F00023464FF40E72CF49CFA007F04BFC08E0D2
:10560000D948007800F0200018B12146D7A007F053
:1056100041FC70BD2DE9FF5F0746884614461D46D4
:105620004FF00109CA4620461DF09CFC1FFA80FB82
:10563000D6485B4622464146CDE9009ACDE90205AF
:10564000384611F0C7FE064636B1334640F24922CD
:10565000CF49D0A007F01EFCBDE8FF9F70B50546FE
:105660000C4654B10020B249087023464FF4FD7235
:10567000D149D2A007F00EFC08E0BB48007800F04A
:10568000200018B12146D9A007F004FC70BD10B568
:10569000B548007800F0200010B1DDA007F0FAFB5B
:1056A0000023E34AE349E448FFF7B4FF10BD2DE9C6
:1056B000F04186B080460D4617461E460024AA4893
:1056C000007800F0200020B132463946DBA007F018
:1056D000E1FB06F00100002876D0A348007800F036
:1056E000200018B12946E4A007F0D4FB394628462B
:1056F000FFF7F4FE0446012C08D04FF49572E749F9
:10570000E7A007F0C7FB06B0BDE8F08101AAECA155
:105710002846FFF7EFFE0446012C73D1924800782B
:1057200000F0200018B101A9E9A007F0B3FB01A91E
:10573000EEA0FFF74AFF0446012C7BD18A4800788F
:1057400000F0200010B1EAA007F0A4FB01AAEDA12F
:105750002846FFF7CFFE0446012C4CD18248007842
:1057600000F0200018B101A9D9A007F093FB01A90E
:10577000E8A0FFF72AFF0446012C5CD17A480078A4
:1057800000F0200010B1E5A007F084FB01AAEAA117
:105790002846FFF7AFFE0446012C7DD17248007801
:1057A00000F0200018B101A9C9A007F073FB01A9FE
:1057B000E3A0FFF70AFF0446012C1DD16A480078D8
:1057C00000F0200020B100E0F8E2DEA007F062FB6C
:1057D000FBF715F90023E14A96499748FFF71AFFAE
:1057E000D7A2DFA1E248FFF7BCFE0023E04A9149BF
:1057F0009148FFF70FFF4FE05B48007800F0200072
:1058000020B100E0D3E2DBA007F044FBFBF74BF94B
:105810000023D24A87498848FFF7FCFEDBA2D0A1CB
:10582000D348FFF79EFE0023D14A82498248FFF702
:10583000F1FE31E031E04C48007800F0200010B17A
:10584000D3A007F027FB01AABBA12846FFF752FE11
:105850000446012C20D14448007800F0200018B103
:1058600001A99BA007F016FB01A9B5A0FFF7ADFEAB
:105870000446012C08D13C48007800F0200058B1C3
:10588000B0A007F007FB07E03748007800F02000E1
:1058900010B1B8A007F0FEFA35E701A9C3A0FFF7E1
:1058A00094FE0446012C10D12F48007800F020000F
:1058B00010B1C2A007F0EEFAFFF7E9FE4FF47A70DC
:1058C00005F0F1FD05F0FEFD1DE701A9C2A0FFF7FF
:1058D0007CFE0446012C26D12348007800F02000ED
:1058E00010B1C1A007F0D6FA01AA86A12846FFF799
:1058F00001FE0446012C17D11B48007800F020005F
:1059000018B101A972A007F0C5FA01A981A0FFF79B
:105910005CFE0446012C08D11348007800F02000FA
:1059200000B16FE171E199E197E18EE122000000A1
:10593000BE5508102044021A5B4D5154545F455225
:10594000525D3A2025733A25642D3E5075626C698C
:10595000736820726573756C74206661696C656428
:105960003A2025640A000000645008105B4D515431
:10597000545D3A205075626C697368207265737566
:105980006C74206F6B3A2025640A0000E355001AFE
:105990003444021A5B4D5154545F4552525D3A20D3
:1059A00025733A25642D3E5075626C6973682065D5
:1059B00072723A2025640A00F543021A5B4D515475
:1059C000545F4552525D3A2025733A25642D3E536B
:1059D000756273637269626520726573756C742099
:1059E0006661696C65643A2025640A005B4D515418
:1059F000545D3A2053756273637269626520726503
:105A000073756C74206F6B3A2025640A00000000E7
:105A10005B4D5154545D3A204D7174742073656E22
:105A200064207265626F6F742061636B0A0000000E
:105A3000C3530810C043021A206B08105B4D515429
:105A4000545D3A20496E636F6D696E6720707562B0
:105A50006C697368207061796C6F61642077697418
:105A600068206C656E6774682025642C20666C6104
:105A700067732025750A00005B4D5154545D3A2030
:105A80006D7174745F696E636F6D696E675F646179
:105A900074615F63623A2025730A0000DF43021AD3
:105AA0005B4D5154545F4552525D3A2025733A255F
:105AB000642D3E57726F6E67206A736F6E210A0005
:105AC0006D6573736167655F7479706500000000D0
:105AD0005B4D5154545D3A2066696E64206765746D
:105AE0002076616C3A25730A000000007270630032
:105AF0005B4D5154545D3A20736574207270632E6F
:105B00002E2E0A00636F6D706F6E656E745F696430
:105B100000000000636D7069643100005B4D5154FA
:105B2000545D3A207365742072706320636D7069F0
:105B300064312E2E2E0A00006461746100000000A2
:105B40006F6E00005B4D5154545D3A2073657420B4
:105B5000727063206F6E2E2E2E0A000009540810FA
:105B6000726573756C745F73746174650000000016
:105B7000465408105B4D5154545D3A2073657420AF
:105B8000727063206F66662E2E2E0A006F6600000C
:105B90005B4D5154545D3A207365742072706320DC
:105BA000636D706964322E2E2E0A0000646576697A
:105BB00063655265626F6F74000000005B4D515465
:105BC000545D3A206465766963655265626F6F74EF
:105BD0002E2E2E0A0000000073696E676C654C69FA
:105BE00076655374617465005B4D5154545D3A2081
:105BF00073696E676C654C69766553746174652E64
:105C00002E2E0A00ECA007F045F9F548007801288F
:105C10000DD1AFF2D402AFF2B801F248FFF7A1FC08
:105C20000023F04AF049F148FFF7F4FC15E0AFF229
:105C3000A402AFF2D401EB48FFF793FC0023E94A3A
:105C4000E949EA48FFF7E6FC07E0E948007800F098
:105C5000200010B1E7A007F01DF954E501A9EFA05D
:105C6000FFF7B3FC0446012C27D1E148007800F08F
:105C7000200010B1EEA007F00DF9D94800780128F6
:105C80000DD1AFF24412AFF22811F148FFF769FCD1
:105C90000023EF4AD449D548FFF7BCFC0CE0AFF233
:105CA0001412AFF24411EA48FFF75BFC0023E84A04
:105CB000CD49CE48FFF7AEFC25E501A9E5A0FFF7E9
:105CC00084FC0446012C35D1C948007800F020003E
:105CD00010B1E3A007F0DEF80023E74AC249C34849
:105CE000FFF798FC4FF4FA7005F0DDFBBC48007834
:105CF00001280DD1AFF2B812AFF29C11D448FFF7D2
:105D000030FC0023D24AB849B848FFF783FC0CE0C6
:105D1000AFF28812AFF2B811CD48FFF722FC002392
:105D2000CB4AB149B148FFF775FC4FF4FA7005F062
:105D3000BAFBE8E401A9D1A0FFF747FC0446012C17
:105D400049D1AB48007800F0200010B1CFA007F097
:105D5000A1F801AAD4A12846FFF7CCFB0446012CE8
:105D600039D1A348007800F0200020B101A9AFF29A
:105D7000A02007F08FF801A9CDA0FFF726FC04466C
:105D8000012C0BD19A48007800F0200010B1CAA075
:105D900007F080F80120FCF7E3F91CE09448007854
:105DA00000F02000B8B1CBA007F074F813E04FF476
:105DB000F072CF49CFA007F06DF80CE04FF4F3720A
:105DC000CB49D6A007F066F82B4640F2E712C84947
:105DD000DCA007F05FF800BF95E470B506460C46FE
:105DE00015468348007800F0200020B12A4621465D
